{
  "contractName": "BuyHouse",
  "abi": [
    {
      "constant": true,
      "inputs": [
        {
          "name": "",
          "type": "uint256"
        }
      ],
      "name": "House",
      "outputs": [
        {
          "name": "locations",
          "type": "string"
        },
        {
          "name": "sellerName",
          "type": "string"
        },
        {
          "name": "sellerImg",
          "type": "string"
        },
        {
          "name": "buyerName",
          "type": "string"
        },
        {
          "name": "houseAddress",
          "type": "string"
        },
        {
          "name": "housePrice",
          "type": "uint256"
        }
      ],
      "payable": false,
      "stateMutability": "view",
      "type": "function"
    },
    {
      "anonymous": false,
      "inputs": [
        {
          "indexed": false,
          "name": "sellerName",
          "type": "string"
        },
        {
          "indexed": false,
          "name": "buyerName",
          "type": "string"
        },
        {
          "indexed": false,
          "name": "houseAddress",
          "type": "string"
        },
        {
          "indexed": false,
          "name": "housePrice",
          "type": "uint256"
        }
      ],
      "name": "BuyLogText",
      "type": "event"
    },
    {
      "constant": false,
      "inputs": [
        {
          "name": "sellerAddress",
          "type": "address"
        },
        {
          "name": "locations",
          "type": "string"
        },
        {
          "name": "sellerName",
          "type": "string"
        },
        {
          "name": "sellerImg",
          "type": "string"
        },
        {
          "name": "buyerName",
          "type": "string"
        },
        {
          "name": "houseAddress",
          "type": "string"
        },
        {
          "name": "housePrice",
          "type": "uint256"
        }
      ],
      "name": "buyRealEstate",
      "outputs": [],
      "payable": true,
      "stateMutability": "payable",
      "type": "function"
    },
    {
      "constant": true,
      "inputs": [],
      "name": "readRealEstate",
      "outputs": [
        {
          "components": [
            {
              "name": "locations",
              "type": "string"
            },
            {
              "name": "sellerName",
              "type": "string"
            },
            {
              "name": "sellerImg",
              "type": "string"
            },
            {
              "name": "buyerName",
              "type": "string"
            },
            {
              "name": "houseAddress",
              "type": "string"
            },
            {
              "name": "housePrice",
              "type": "uint256"
            }
          ],
          "name": "",
          "type": "tuple[]"
        }
      ],
      "payable": false,
      "stateMutability": "view",
      "type": "function"
    }
  ],
  "bytecode": "0x608060405234801561001057600080fd5b50610f87806100206000396000f300608060405260043610610057576000357c0100000000000000000000000000000000000000000000000000000000900463ffffffff1680633839efe11461005c578063c9dbbc3a1461009e578063ee666fe0146100c9575b600080fd5b34801561006857600080fd5b50610083600480360361007e9190810190610b7b565b6100e5565b60405161009596959493929190610dae565b60405180910390f35b3480156100aa57600080fd5b506100b3610428565b6040516100c09190610d32565b60405180910390f35b6100e360048036036100de9190810190610a65565b6107bc565b005b6000818154811015156100f457fe5b9060005260206000209060060201600091509050806000018054600181600116156101000203166002900480601f0160208091040260200160405190810160405280929190818152602001828054600181600116156101000203166002900480156101a05780601f10610175576101008083540402835291602001916101a0565b820191906000526020600020905b81548152906001019060200180831161018357829003601f168201915b505050505090806001018054600181600116156101000203166002900480601f01602080910402602001604051908101604052809291908181526020018280546001816001161561010002031660029004801561023e5780601f106102135761010080835404028352916020019161023e565b820191906000526020600020905b81548152906001019060200180831161022157829003601f168201915b505050505090806002018054600181600116156101000203166002900480601f0160208091040260200160405190810160405280929190818152602001828054600181600116156101000203166002900480156102dc5780601f106102b1576101008083540402835291602001916102dc565b820191906000526020600020905b8154815290600101906020018083116102bf57829003601f168201915b505050505090806003018054600181600116156101000203166002900480601f01602080910402602001604051908101604052809291908181526020018280546001816001161561010002031660029004801561037a5780601f1061034f5761010080835404028352916020019161037a565b820191906000526020600020905b81548152906001019060200180831161035d57829003601f168201915b505050505090806004018054600181600116156101000203166002900480601f0160208091040260200160405190810160405280929190818152602001828054600181600116156101000203166002900480156104185780601f106103ed57610100808354040283529160200191610418565b820191906000526020600020905b8154815290600101906020018083116103fb57829003601f168201915b5050505050908060050154905086565b60606000805480602002602001604051908101604052809291908181526020016000905b828210156107b3578382906000526020600020906006020160c06040519081016040529081600082018054600181600116156101000203166002900480601f0160208091040260200160405190810160405280929190818152602001828054600181600116156101000203166002900480156105095780601f106104de57610100808354040283529160200191610509565b820191906000526020600020905b8154815290600101906020018083116104ec57829003601f168201915b50505050508152602001600182018054600181600116156101000203166002900480601f0160208091040260200160405190810160405280929190818152602001828054600181600116156101000203166002900480156105ab5780601f10610580576101008083540402835291602001916105ab565b820191906000526020600020905b81548152906001019060200180831161058e57829003601f168201915b50505050508152602001600282018054600181600116156101000203166002900480601f01602080910402602001604051908101604052809291908181526020018280546001816001161561010002031660029004801561064d5780601f106106225761010080835404028352916020019161064d565b820191906000526020600020905b81548152906001019060200180831161063057829003601f168201915b50505050508152602001600382018054600181600116156101000203166002900480601f0160208091040260200160405190810160405280929190818152602001828054600181600116156101000203166002900480156106ef5780601f106106c4576101008083540402835291602001916106ef565b820191906000526020600020905b8154815290600101906020018083116106d257829003601f168201915b50505050508152602001600482018054600181600116156101000203166002900480601f0160208091040260200160405190810160405280929190818152602001828054600181600116156101000203166002900480156107915780601f1061076657610100808354040283529160200191610791565b820191906000526020600020905b81548152906001019060200180831161077457829003601f168201915b505050505081526020016005820154815250508152602001906001019061044c565b50505050905090565b8673ffffffffffffffffffffffffffffffffffffffff166108fc349081150290604051600060405180830381858888f19350505050158015610802573d6000803e3d6000fd5b50600060c0604051908101604052808881526020018781526020018681526020018581526020018481526020018381525090806001815401808255809150509060018203906000526020600020906006020160009091929091909150600082015181600001908051906020019061087a929190610942565b506020820151816001019080519060200190610897929190610942565b5060408201518160020190805190602001906108b4929190610942565b5060608201518160030190805190602001906108d1929190610942565b5060808201518160040190805190602001906108ee929190610942565b5060a082015181600501555050507f2dc456ad87fded0a4e0743995e587f26f9fdd528795ad41883167419d6903a07858484846040516109319493929190610d54565b60405180910390a150505050505050565b828054600181600116156101000203166002900490600052602060002090601f016020900481019282601f1061098357805160ff19168380011785556109b1565b828001600101855582156109b1579182015b828111156109b0578251825591602001919060010190610995565b5b5090506109be91906109c2565b5090565b6109e491905b808211156109e05760008160009055506001016109c8565b5090565b90565b60006109f38235610ed0565b905092915050565b600082601f8301121515610a0e57600080fd5b8135610a21610a1c82610e5f565b610e32565b91508082526020830160208301858383011115610a3d57600080fd5b610a48838284610efa565b50505092915050565b6000610a5d8235610ef0565b905092915050565b600080600080600080600060e0888a031215610a8057600080fd5b6000610a8e8a828b016109e7565b975050602088013567ffffffffffffffff811115610aab57600080fd5b610ab78a828b016109fb565b965050604088013567ffffffffffffffff811115610ad457600080fd5b610ae08a828b016109fb565b955050606088013567ffffffffffffffff811115610afd57600080fd5b610b098a828b016109fb565b945050608088013567ffffffffffffffff811115610b2657600080fd5b610b328a828b016109fb565b93505060a088013567ffffffffffffffff811115610b4f57600080fd5b610b5b8a828b016109fb565b92505060c0610b6c8a828b01610a51565b91505092959891949750929550565b600060208284031215610b8d57600080fd5b6000610b9b84828501610a51565b91505092915050565b6000610baf82610e98565b80845260208401935083602082028501610bc885610e8b565b60005b84811015610c01578383038852610be3838351610c7e565b9250610bee82610eb9565b9150602088019750600181019050610bcb565b508196508694505050505092915050565b6000610c1d82610eae565b808452610c31816020860160208601610f09565b610c3a81610f3c565b602085010191505092915050565b6000610c5382610ea3565b808452610c67816020860160208601610f09565b610c7081610f3c565b602085010191505092915050565b600060c0830160008301518482036000860152610c9b8282610c48565b91505060208301518482036020860152610cb58282610c48565b91505060408301518482036040860152610ccf8282610c48565b91505060608301518482036060860152610ce98282610c48565b91505060808301518482036080860152610d038282610c48565b91505060a0830151610d1860a0860182610d23565b508091505092915050565b610d2c81610ec6565b82525050565b60006020820190508181036000830152610d4c8184610ba4565b905092915050565b60006080820190508181036000830152610d6e8187610c12565b90508181036020830152610d828186610c12565b90508181036040830152610d968185610c12565b9050610da56060830184610d23565b95945050505050565b600060c0820190508181036000830152610dc88189610c48565b90508181036020830152610ddc8188610c48565b90508181036040830152610df08187610c48565b90508181036060830152610e048186610c48565b90508181036080830152610e188185610c48565b9050610e2760a0830184610d23565b979650505050505050565b6000604051905081810181811067ffffffffffffffff82111715610e5557600080fd5b8060405250919050565b600067ffffffffffffffff821115610e7657600080fd5b601f19601f8301169050602081019050919050565b6000602082019050919050565b600081519050919050565b600081519050919050565b600081519050919050565b6000602082019050919050565b6000819050919050565b600073ffffffffffffffffffffffffffffffffffffffff82169050919050565b6000819050919050565b82818337600083830152505050565b60005b83811015610f27578082015181840152602081019050610f0c565b83811115610f36576000848401525b50505050565b6000601f19601f83011690509190505600a265627a7a72305820cc3acc7f89554af1b058596b03cda1de1c0584db7d52eabf33ba309aef84324a6c6578706572696d656e74616cf50037",
  "source": "// SPDX-License-Identifier: MIT\npragma solidity ^0.4.23;\npragma experimental ABIEncoderV2;\n\ncontract BuyHouse {\n\n  struct HouseInfo{\n    string locations;\n    string sellerName;\n    string sellerImg;\n    string buyerName;    \n    string houseAddress;\n    uint256 housePrice;\n  }\n\n  event BuyLogText(string sellerName, string buyerName, string houseAddress, uint256 housePrice);\n\n  HouseInfo[] public House;\n\n  function buyRealEstate(address sellerAddress, string locations, string sellerName,string sellerImg, string buyerName, string houseAddress, uint256 housePrice )public payable{\n    sellerAddress.transfer(msg.value);\n    House.push(HouseInfo(locations,sellerName,sellerImg,buyerName,houseAddress,housePrice));\n    emit BuyLogText(sellerName ,buyerName , houseAddress , housePrice );\n  }\n\n  function readRealEstate() public view returns(HouseInfo[] memory){\n      return House;    \n  }\n}\n",
  "sourcePath": "C:\\Users\\cyr50\\OneDrive\\바탕 화면\\비트고급 프로젝트 0711\\Front\\truffle\\contracts\\BuyHouse.sol",
  "compiler": {
    "name": "solc",
    "version": "0.4.24+commit.e67f0147.Emscripten.clang"
  },
  "schemaVersion": "3.4.7",
  "updatedAt": "2022-07-11T05:46:34.341Z",
  "networkType": "ethereum",
  "devdoc": {
    "methods": {}
  },
  "userdoc": {
    "methods": {}
  }
}