{
  "contractName": "BuyHouse",
  "abi": [
    {
      "constant": true,
      "inputs": [
        {
          "name": "",
          "type": "uint256"
        }
      ],
      "name": "Deajeon",
      "outputs": [
        {
          "name": "sellerName",
          "type": "string"
        },
        {
          "name": "buyerName",
          "type": "string"
        },
        {
          "name": "houseAddress",
          "type": "string"
        },
        {
          "name": "housePrice",
          "type": "uint256"
        }
      ],
      "payable": false,
      "stateMutability": "view",
      "type": "function"
    },
    {
      "constant": true,
      "inputs": [
        {
          "name": "",
          "type": "uint256"
        }
      ],
      "name": "Seoul",
      "outputs": [
        {
          "name": "sellerName",
          "type": "string"
        },
        {
          "name": "buyerName",
          "type": "string"
        },
        {
          "name": "houseAddress",
          "type": "string"
        },
        {
          "name": "housePrice",
          "type": "uint256"
        }
      ],
      "payable": false,
      "stateMutability": "view",
      "type": "function"
    },
    {
      "constant": false,
      "inputs": [
        {
          "name": "sellerAddress",
          "type": "address"
        },
        {
          "name": "locations",
          "type": "string"
        },
        {
          "name": "sellerName",
          "type": "string"
        },
        {
          "name": "buyerName",
          "type": "string"
        },
        {
          "name": "houseAddress",
          "type": "string"
        },
        {
          "name": "housePrice",
          "type": "uint256"
        }
      ],
      "name": "buyRealEstate",
      "outputs": [],
      "payable": true,
      "stateMutability": "payable",
      "type": "function"
    },
    {
      "constant": true,
      "inputs": [
        {
          "name": "locations",
          "type": "string"
        }
      ],
      "name": "readRealEstate",
      "outputs": [
        {
          "components": [
            {
              "name": "sellerName",
              "type": "string"
            },
            {
              "name": "buyerName",
              "type": "string"
            },
            {
              "name": "houseAddress",
              "type": "string"
            },
            {
              "name": "housePrice",
              "type": "uint256"
            }
          ],
          "name": "",
          "type": "tuple[]"
        }
      ],
      "payable": false,
      "stateMutability": "view",
      "type": "function"
    }
  ],
  "bytecode": "0x608060405234801561001057600080fd5b506113ae806100206000396000f300608060405260043610610062576000357c0100000000000000000000000000000000000000000000000000000000900463ffffffff1680632b901b6a146100675780639ec8abfd146100a7578063db917c54146100e4578063dfa3a9d014610124575b600080fd5b34801561007357600080fd5b5061008e6004803603610089919081019061109b565b610140565b60405161009e949392919061120a565b60405180910390f35b3480156100b357600080fd5b506100ce60048036036100c9919081019061105a565b610347565b6040516100db91906111e8565b60405180910390f35b3480156100f057600080fd5b5061010b6004803603610106919081019061109b565b61093d565b60405161011b949392919061120a565b60405180910390f35b61013e60048036036101399190810190610f71565b610b44565b005b60008181548110151561014f57fe5b9060005260206000209060040201600091509050806000018054600181600116156101000203166002900480601f0160208091040260200160405190810160405280929190818152602001828054600181600116156101000203166002900480156101fb5780601f106101d0576101008083540402835291602001916101fb565b820191906000526020600020905b8154815290600101906020018083116101de57829003601f168201915b505050505090806001018054600181600116156101000203166002900480601f0160208091040260200160405190810160405280929190818152602001828054600181600116156101000203166002900480156102995780601f1061026e57610100808354040283529160200191610299565b820191906000526020600020905b81548152906001019060200180831161027c57829003601f168201915b505050505090806002018054600181600116156101000203166002900480601f0160208091040260200160405190810160405280929190818152602001828054600181600116156101000203166002900480156103375780601f1061030c57610100808354040283529160200191610337565b820191906000526020600020905b81548152906001019060200180831161031a57829003601f168201915b5050505050908060030154905084565b606060405180807feb8c80eca08400000000000000000000000000000000000000000000000000008152506006019050604051809103902060001916826040518082805190602001908083835b6020831015156103b95780518252602082019150602081019050602083039250610394565b6001836020036101000a0380198251168184511680821785525050505050509050019150506040518091039020600019161415610640576000805480602002602001604051908101604052809291908181526020016000905b82821015610635578382906000526020600020906004020160806040519081016040529081600082018054600181600116156101000203166002900480601f0160208091040260200160405190810160405280929190818152602001828054600181600116156101000203166002900480156104cf5780601f106104a4576101008083540402835291602001916104cf565b820191906000526020600020905b8154815290600101906020018083116104b257829003601f168201915b50505050508152602001600182018054600181600116156101000203166002900480601f0160208091040260200160405190810160405280929190818152602001828054600181600116156101000203166002900480156105715780601f1061054657610100808354040283529160200191610571565b820191906000526020600020905b81548152906001019060200180831161055457829003601f168201915b50505050508152602001600282018054600181600116156101000203166002900480601f0160208091040260200160405190810160405280929190818152602001828054600181600116156101000203166002900480156106135780601f106105e857610100808354040283529160200191610613565b820191906000526020600020905b8154815290600101906020018083116105f657829003601f168201915b5050505050815260200160038201548152505081526020019060010190610412565b505050509050610938565b60405180807fec849cec9ab800000000000000000000000000000000000000000000000000008152506006019050604051809103902060001916826040518082805190602001908083835b6020831015156106b0578051825260208201915060208101905060208303925061068b565b6001836020036101000a0380198251168184511680821785525050505050509050019150506040518091039020600019161415610937576001805480602002602001604051908101604052809291908181526020016000905b8282101561092c578382906000526020600020906004020160806040519081016040529081600082018054600181600116156101000203166002900480601f0160208091040260200160405190810160405280929190818152602001828054600181600116156101000203166002900480156107c65780601f1061079b576101008083540402835291602001916107c6565b820191906000526020600020905b8154815290600101906020018083116107a957829003601f168201915b50505050508152602001600182018054600181600116156101000203166002900480601f0160208091040260200160405190810160405280929190818152602001828054600181600116156101000203166002900480156108685780601f1061083d57610100808354040283529160200191610868565b820191906000526020600020905b81548152906001019060200180831161084b57829003601f168201915b50505050508152602001600282018054600181600116156101000203166002900480601f01602080910402602001604051908101604052809291908181526020018280546001816001161561010002031660029004801561090a5780601f106108df5761010080835404028352916020019161090a565b820191906000526020600020905b8154815290600101906020018083116108ed57829003601f168201915b5050505050815260200160038201548152505081526020019060010190610709565b505050509050610938565b5b919050565b60018181548110151561094c57fe5b9060005260206000209060040201600091509050806000018054600181600116156101000203166002900480601f0160208091040260200160405190810160405280929190818152602001828054600181600116156101000203166002900480156109f85780601f106109cd576101008083540402835291602001916109f8565b820191906000526020600020905b8154815290600101906020018083116109db57829003601f168201915b505050505090806001018054600181600116156101000203166002900480601f016020809104026020016040519081016040528092919081815260200182805460018160011615610100020316600290048015610a965780601f10610a6b57610100808354040283529160200191610a96565b820191906000526020600020905b815481529060010190602001808311610a7957829003601f168201915b505050505090806002018054600181600116156101000203166002900480601f016020809104026020016040519081016040528092919081815260200182805460018160011615610100020316600290048015610b345780601f10610b0957610100808354040283529160200191610b34565b820191906000526020600020905b815481529060010190602001808311610b1757829003601f168201915b5050505050908060030154905084565b8573ffffffffffffffffffffffffffffffffffffffff166108fc349081150290604051600060405180830381858888f19350505050158015610b8a573d6000803e3d6000fd5b5060405180807feb8c80eca08400000000000000000000000000000000000000000000000000008152506006019050604051809103902060001916856040518082805190602001908083835b602083101515610bfb5780518252602082019150602081019050602083039250610bd6565b6001836020036101000a0380198251168184511680821785525050505050509050019150506040518091039020600019161415610cea57600060806040519081016040528086815260200185815260200184815260200183815250908060018154018082558091505090600182039060005260206000209060040201600090919290919091506000820151816000019080519060200190610c9d929190610e4e565b506020820151816001019080519060200190610cba929190610e4e565b506040820151816002019080519060200190610cd7929190610e4e565b5060608201518160030155505050610e46565b60405180807fec849cec9ab800000000000000000000000000000000000000000000000000008152506006019050604051809103902060001916856040518082805190602001908083835b602083101515610d5a5780518252602082019150602081019050602083039250610d35565b6001836020036101000a0380198251168184511680821785525050505050509050019150506040518091039020600019161415610e4557600160806040519081016040528086815260200185815260200184815260200183815250908060018154018082558091505090600182039060005260206000209060040201600090919290919091506000820151816000019080519060200190610dfc929190610e4e565b506020820151816001019080519060200190610e19929190610e4e565b506040820151816002019080519060200190610e36929190610e4e565b50606082015181600301555050505b5b505050505050565b828054600181600116156101000203166002900490600052602060002090601f016020900481019282601f10610e8f57805160ff1916838001178555610ebd565b82800160010185558215610ebd579182015b82811115610ebc578251825591602001919060010190610ea1565b5b509050610eca9190610ece565b5090565b610ef091905b80821115610eec576000816000905550600101610ed4565b5090565b90565b6000610eff82356112f7565b905092915050565b600082601f8301121515610f1a57600080fd5b8135610f2d610f2882611291565b611264565b91508082526020830160208301858383011115610f4957600080fd5b610f54838284611321565b50505092915050565b6000610f698235611317565b905092915050565b60008060008060008060c08789031215610f8a57600080fd5b6000610f9889828a01610ef3565b965050602087013567ffffffffffffffff811115610fb557600080fd5b610fc189828a01610f07565b955050604087013567ffffffffffffffff811115610fde57600080fd5b610fea89828a01610f07565b945050606087013567ffffffffffffffff81111561100757600080fd5b61101389828a01610f07565b935050608087013567ffffffffffffffff81111561103057600080fd5b61103c89828a01610f07565b92505060a061104d89828a01610f5d565b9150509295509295509295565b60006020828403121561106c57600080fd5b600082013567ffffffffffffffff81111561108657600080fd5b61109284828501610f07565b91505092915050565b6000602082840312156110ad57600080fd5b60006110bb84828501610f5d565b91505092915050565b60006110cf826112ca565b808452602084019350836020820285016110e8856112bd565b60005b84811015611121578383038852611103838351611168565b925061110e826112e0565b91506020880197506001810190506110eb565b508196508694505050505092915050565b600061113d826112d5565b808452611151816020860160208601611330565b61115a81611363565b602085010191505092915050565b600060808301600083015184820360008601526111858282611132565b9150506020830151848203602086015261119f8282611132565b915050604083015184820360408601526111b98282611132565b91505060608301516111ce60608601826111d9565b508091505092915050565b6111e2816112ed565b82525050565b6000602082019050818103600083015261120281846110c4565b905092915050565b600060808201905081810360008301526112248187611132565b905081810360208301526112388186611132565b9050818103604083015261124c8185611132565b905061125b60608301846111d9565b95945050505050565b6000604051905081810181811067ffffffffffffffff8211171561128757600080fd5b8060405250919050565b600067ffffffffffffffff8211156112a857600080fd5b601f19601f8301169050602081019050919050565b6000602082019050919050565b600081519050919050565b600081519050919050565b6000602082019050919050565b6000819050919050565b600073ffffffffffffffffffffffffffffffffffffffff82169050919050565b6000819050919050565b82818337600083830152505050565b60005b8381101561134e578082015181840152602081019050611333565b8381111561135d576000848401525b50505050565b6000601f19601f83011690509190505600a265627a7a72305820cc5fe1b413905938df087e6413a7105cb32bf5b2dd7af2fbc1314aead324acf06c6578706572696d656e74616cf50037",
  "source": "// SPDX-License-Identifier: MIT\npragma solidity ^0.4.23;\npragma experimental ABIEncoderV2;\n\ncontract BuyHouse {\n\n  struct HouseInfo{\n    string sellerName;\n    string buyerName;\n    string houseAddress;\n    uint256 housePrice;\n  }\n\n  HouseInfo[] public Deajeon;\n  HouseInfo[] public Seoul;\n  \n  function buyRealEstate(address sellerAddress, string locations, string sellerName, string buyerName, string houseAddress, uint256 housePrice )public payable{\n    sellerAddress.transfer(msg.value);\n    if(keccak256(bytes(locations)) == keccak256(\"대전\")){\n      Deajeon.push(HouseInfo(sellerName,buyerName,houseAddress,housePrice));\n    }\n\n    else if(keccak256(bytes(locations)) == keccak256(\"서울\")){\n      Seoul.push(HouseInfo(sellerName,buyerName,houseAddress,housePrice));\n    }\n  }\n\n  function readRealEstate(string locations)  public view returns(HouseInfo[] memory){\n    if(keccak256(bytes(locations)) == keccak256(\"대전\")){\n      return Deajeon;\n    }\n    else if(keccak256(bytes(locations)) == keccak256(\"서울\")){\n      return Seoul;\n    }\n  }\n}",
  "sourcePath": "C:\\Users\\cyr50\\OneDrive\\바탕 화면\\프로젝트 구매버튼\\Front\\truffle\\contracts\\BuyHouse.sol",
  "compiler": {
    "name": "solc",
    "version": "0.4.24+commit.e67f0147.Emscripten.clang"
  },
  "schemaVersion": "3.4.7",
  "updatedAt": "2022-07-05T07:17:01.769Z",
  "devdoc": {
    "methods": {}
  },
  "userdoc": {
    "methods": {}
  }
}