{
  "contractName": "BuyHouse",
  "abi": [
    {
      "anonymous": false,
      "inputs": [
        {
          "indexed": false,
          "internalType": "string",
          "name": "sellerName",
          "type": "string"
        },
        {
          "indexed": false,
          "internalType": "string",
          "name": "buyerName",
          "type": "string"
        },
        {
          "indexed": false,
          "internalType": "string",
          "name": "houseAddress",
          "type": "string"
        },
        {
          "indexed": false,
          "internalType": "uint256",
          "name": "housePrice",
          "type": "uint256"
        }
      ],
      "name": "BuyLogText",
      "type": "event"
    },
    {
      "inputs": [
        {
          "internalType": "uint256",
          "name": "",
          "type": "uint256"
        }
      ],
      "name": "House",
      "outputs": [
        {
          "internalType": "string",
          "name": "locations",
          "type": "string"
        },
        {
          "internalType": "string",
          "name": "sellerName",
          "type": "string"
        },
        {
          "internalType": "string",
          "name": "sellerImg",
          "type": "string"
        },
        {
          "internalType": "string",
          "name": "buyerName",
          "type": "string"
        },
        {
          "internalType": "string",
          "name": "houseAddress",
          "type": "string"
        },
        {
          "internalType": "uint256",
          "name": "housePrice",
          "type": "uint256"
        }
      ],
      "stateMutability": "view",
      "type": "function",
      "constant": true
    },
    {
      "inputs": [
        {
          "internalType": "address",
          "name": "sellerAddress",
          "type": "address"
        },
        {
          "internalType": "string",
          "name": "locations",
          "type": "string"
        },
        {
          "internalType": "string",
          "name": "sellerName",
          "type": "string"
        },
        {
          "internalType": "string",
          "name": "sellerImg",
          "type": "string"
        },
        {
          "internalType": "string",
          "name": "buyerName",
          "type": "string"
        },
        {
          "internalType": "string",
          "name": "houseAddress",
          "type": "string"
        },
        {
          "internalType": "uint256",
          "name": "housePrice",
          "type": "uint256"
        }
      ],
      "name": "buyRealEstate",
      "outputs": [],
      "stateMutability": "payable",
      "type": "function",
      "payable": true
    },
    {
      "inputs": [],
      "name": "readRealEstate",
      "outputs": [
        {
          "components": [
            {
              "internalType": "string",
              "name": "locations",
              "type": "string"
            },
            {
              "internalType": "string",
              "name": "sellerName",
              "type": "string"
            },
            {
              "internalType": "string",
              "name": "sellerImg",
              "type": "string"
            },
            {
              "internalType": "string",
              "name": "buyerName",
              "type": "string"
            },
            {
              "internalType": "string",
              "name": "houseAddress",
              "type": "string"
            },
            {
              "internalType": "uint256",
              "name": "housePrice",
              "type": "uint256"
            }
          ],
          "internalType": "struct BuyHouse.HouseInfo[]",
          "name": "",
          "type": "tuple[]"
        }
      ],
      "stateMutability": "view",
      "type": "function",
      "constant": true
    }
  ],
  "bytecode": "0x608060405234801561001057600080fd5b5061101d806100206000396000f3fe6080604052600436106100345760003560e01c80633839efe114610039578063c9dbbc3a1461007b578063ee666fe0146100a6575b600080fd5b34801561004557600080fd5b50610060600480360381019061005b9190610ac6565b6100c2565b60405161007296959493929190610ccf565b60405180910390f35b34801561008757600080fd5b506100906103b6565b60405161009d9190610cad565b60405180910390f35b6100c060048036038101906100bb91906109b0565b6106f9565b005b600081815481106100d257600080fd5b90600052602060002090600602016000915090508060000180546100f590610ee7565b80601f016020809104026020016040519081016040528092919081815260200182805461012190610ee7565b801561016e5780601f106101435761010080835404028352916020019161016e565b820191906000526020600020905b81548152906001019060200180831161015157829003601f168201915b50505050509080600101805461018390610ee7565b80601f01602080910402602001604051908101604052809291908181526020018280546101af90610ee7565b80156101fc5780601f106101d1576101008083540402835291602001916101fc565b820191906000526020600020905b8154815290600101906020018083116101df57829003601f168201915b50505050509080600201805461021190610ee7565b80601f016020809104026020016040519081016040528092919081815260200182805461023d90610ee7565b801561028a5780601f1061025f5761010080835404028352916020019161028a565b820191906000526020600020905b81548152906001019060200180831161026d57829003601f168201915b50505050509080600301805461029f90610ee7565b80601f01602080910402602001604051908101604052809291908181526020018280546102cb90610ee7565b80156103185780601f106102ed57610100808354040283529160200191610318565b820191906000526020600020905b8154815290600101906020018083116102fb57829003601f168201915b50505050509080600401805461032d90610ee7565b80601f016020809104026020016040519081016040528092919081815260200182805461035990610ee7565b80156103a65780601f1061037b576101008083540402835291602001916103a6565b820191906000526020600020905b81548152906001019060200180831161038957829003601f168201915b5050505050908060050154905086565b60606000805480602002602001604051908101604052809291908181526020016000905b828210156106f057838290600052602060002090600602016040518060c001604052908160008201805461040d90610ee7565b80601f016020809104026020016040519081016040528092919081815260200182805461043990610ee7565b80156104865780601f1061045b57610100808354040283529160200191610486565b820191906000526020600020905b81548152906001019060200180831161046957829003601f168201915b5050505050815260200160018201805461049f90610ee7565b80601f01602080910402602001604051908101604052809291908181526020018280546104cb90610ee7565b80156105185780601f106104ed57610100808354040283529160200191610518565b820191906000526020600020905b8154815290600101906020018083116104fb57829003601f168201915b5050505050815260200160028201805461053190610ee7565b80601f016020809104026020016040519081016040528092919081815260200182805461055d90610ee7565b80156105aa5780601f1061057f576101008083540402835291602001916105aa565b820191906000526020600020905b81548152906001019060200180831161058d57829003601f168201915b505050505081526020016003820180546105c390610ee7565b80601f01602080910402602001604051908101604052809291908181526020018280546105ef90610ee7565b801561063c5780601f106106115761010080835404028352916020019161063c565b820191906000526020600020905b81548152906001019060200180831161061f57829003601f168201915b5050505050815260200160048201805461065590610ee7565b80601f016020809104026020016040519081016040528092919081815260200182805461068190610ee7565b80156106ce5780601f106106a3576101008083540402835291602001916106ce565b820191906000526020600020905b8154815290600101906020018083116106b157829003601f168201915b50505050508152602001600582015481525050815260200190600101906103da565b50505050905090565b8673ffffffffffffffffffffffffffffffffffffffff166108fc349081150290604051600060405180830381858888f1935050505015801561073f573d6000803e3d6000fd5b5060006040518060c0016040528088815260200187815260200186815260200185815260200184815260200183815250908060018154018082558091505060019003906000526020600020906006020160009091909190915060008201518160000190805190602001906107b492919061087b565b5060208201518160010190805190602001906107d192919061087b565b5060408201518160020190805190602001906107ee92919061087b565b50606082015181600301908051906020019061080b92919061087b565b50608082015181600401908051906020019061082892919061087b565b5060a0820151816005015550507f2dc456ad87fded0a4e0743995e587f26f9fdd528795ad41883167419d6903a078584848460405161086a9493929190610d53565b60405180910390a150505050505050565b82805461088790610ee7565b90600052602060002090601f0160209004810192826108a957600085556108f0565b82601f106108c257805160ff19168380011785556108f0565b828001600101855582156108f0579182015b828111156108ef5782518255916020019190600101906108d4565b5b5090506108fd9190610901565b5090565b5b8082111561091a576000816000905550600101610902565b5090565b600061093161092c84610dd2565b610dad565b90508281526020810184848401111561094957600080fd5b610954848285610ea5565b509392505050565b60008135905061096b81610fb9565b92915050565b600082601f83011261098257600080fd5b813561099284826020860161091e565b91505092915050565b6000813590506109aa81610fd0565b92915050565b600080600080600080600060e0888a0312156109cb57600080fd5b60006109d98a828b0161095c565b975050602088013567ffffffffffffffff8111156109f657600080fd5b610a028a828b01610971565b965050604088013567ffffffffffffffff811115610a1f57600080fd5b610a2b8a828b01610971565b955050606088013567ffffffffffffffff811115610a4857600080fd5b610a548a828b01610971565b945050608088013567ffffffffffffffff811115610a7157600080fd5b610a7d8a828b01610971565b93505060a088013567ffffffffffffffff811115610a9a57600080fd5b610aa68a828b01610971565b92505060c0610ab78a828b0161099b565b91505092959891949750929550565b600060208284031215610ad857600080fd5b6000610ae68482850161099b565b91505092915050565b6000610afb8383610bea565b905092915050565b6000610b0e82610e13565b610b188185610e36565b935083602082028501610b2a85610e03565b8060005b85811015610b665784840389528151610b478582610aef565b9450610b5283610e29565b925060208a01995050600181019050610b2e565b50829750879550505050505092915050565b6000610b8382610e1e565b610b8d8185610e47565b9350610b9d818560208601610eb4565b610ba681610fa8565b840191505092915050565b6000610bbc82610e1e565b610bc68185610e58565b9350610bd6818560208601610eb4565b610bdf81610fa8565b840191505092915050565b600060c0830160008301518482036000860152610c078282610b78565b91505060208301518482036020860152610c218282610b78565b91505060408301518482036040860152610c3b8282610b78565b91505060608301518482036060860152610c558282610b78565b91505060808301518482036080860152610c6f8282610b78565b91505060a0830151610c8460a0860182610c8f565b508091505092915050565b610c9881610e9b565b82525050565b610ca781610e9b565b82525050565b60006020820190508181036000830152610cc78184610b03565b905092915050565b600060c0820190508181036000830152610ce98189610bb1565b90508181036020830152610cfd8188610bb1565b90508181036040830152610d118187610bb1565b90508181036060830152610d258186610bb1565b90508181036080830152610d398185610bb1565b9050610d4860a0830184610c9e565b979650505050505050565b60006080820190508181036000830152610d6d8187610bb1565b90508181036020830152610d818186610bb1565b90508181036040830152610d958185610bb1565b9050610da46060830184610c9e565b95945050505050565b6000610db7610dc8565b9050610dc38282610f19565b919050565b6000604051905090565b600067ffffffffffffffff821115610ded57610dec610f79565b5b610df682610fa8565b9050602081019050919050565b6000819050602082019050919050565b600081519050919050565b600081519050919050565b6000602082019050919050565b600082825260208201905092915050565b600082825260208201905092915050565b600082825260208201905092915050565b6000610e7482610e7b565b9050919050565b600073ffffffffffffffffffffffffffffffffffffffff82169050919050565b6000819050919050565b82818337600083830152505050565b60005b83811015610ed2578082015181840152602081019050610eb7565b83811115610ee1576000848401525b50505050565b60006002820490506001821680610eff57607f821691505b60208210811415610f1357610f12610f4a565b5b50919050565b610f2282610fa8565b810181811067ffffffffffffffff82111715610f4157610f40610f79565b5b80604052505050565b7f4e487b7100000000000000000000000000000000000000000000000000000000600052602260045260246000fd5b7f4e487b7100000000000000000000000000000000000000000000000000000000600052604160045260246000fd5b6000601f19601f8301169050919050565b610fc281610e69565b8114610fcd57600080fd5b50565b610fd981610e9b565b8114610fe457600080fd5b5056fea2646970667358221220ba0c3e65cef8b2477278ce7c21ab0bedcf059337760610f4855645db1a6b065964736f6c63430008010033",
  "immutableReferences": {},
  "source": "// SPDX-License-Identifier: MIT\npragma solidity >=0.4.23;\npragma experimental ABIEncoderV2;\n\ncontract BuyHouse {\n\n  struct HouseInfo{\n    string locations;\n    string sellerName;\n    string sellerImg;\n    string buyerName;    \n    string houseAddress;\n    uint256 housePrice;\n  }\n\n\n  event BuyLogText(string sellerName, string buyerName, string houseAddress, uint256 housePrice);\n\n  HouseInfo[] public House;\n\n  function buyRealEstate(address sellerAddress, string memory locations, string memory sellerName,string memory sellerImg, string memory buyerName, string memory houseAddress, uint256 housePrice )public payable{\n    payable(sellerAddress).transfer(msg.value);\n    House.push(HouseInfo(locations,sellerName,sellerImg,buyerName,houseAddress,housePrice));\n    emit BuyLogText(sellerName ,buyerName , houseAddress , housePrice );\n  }\n\n  function readRealEstate() public view returns(HouseInfo[] memory){\n      return House;    \n  }\n}\n",
  "sourcePath": "C:\\Users\\cyr50\\OneDrive\\ \\  Main\\Front\\truffle\\contracts\\BuyHouse.sol",
  "compiler": {
    "name": "solc",
    "version": "0.8.1+commit.df193b15.Emscripten.clang"
  },
  "schemaVersion": "3.4.7",
  "updatedAt": "2022-07-12T05:59:18.783Z",
  "networkType": "ethereum",
  "devdoc": {
    "kind": "dev",
    "methods": {},
    "version": 1
  },
  "userdoc": {
    "kind": "user",
    "methods": {},
    "version": 1
  }
}