{
  "contractName": "BuyHouse",
  "abi": [
    {
      "constant": false,
      "inputs": [
        {
          "name": "sellerAddress",
          "type": "address"
        }
      ],
      "name": "buyRealEstate",
      "outputs": [],
      "payable": true,
      "stateMutability": "payable",
      "type": "function"
    }
  ],
  "bytecode": "0x608060405234801561001057600080fd5b5060ed8061001f6000396000f300608060405260043610603f576000357c0100000000000000000000000000000000000000000000000000000000900463ffffffff168063b1656137146044575b600080fd5b6076600480360381019080803573ffffffffffffffffffffffffffffffffffffffff1690602001909291905050506078565b005b8073ffffffffffffffffffffffffffffffffffffffff166108fc349081150290604051600060405180830381858888f1935050505015801560bd573d6000803e3d6000fd5b50505600a165627a7a723058205ac5fce92b610349d6b0eb98fc5dd1762794c66dded21ddbd8f4a740b16ad9030029",
  "source": "// SPDX-License-Identifier: MIT\npragma solidity ^0.4.23;\n\ncontract BuyHouse {\n  function buyRealEstate(address sellerAddress)public payable{\n    sellerAddress.transfer(msg.value);\n  }\n}\n",
  "sourcePath": "C:\\Users\\user\\Desktop\\2022\\Truffle-React\\front\\truffle\\contracts\\BuyHouse.sol",
  "compiler": {
    "name": "solc",
    "version": "0.4.24+commit.e67f0147.Emscripten.clang"
  },
  "schemaVersion": "3.4.8",
  "updatedAt": "2022-07-05T02:12:55.593Z",
  "networkType": "ethereum",
  "devdoc": {
    "methods": {}
  },
  "userdoc": {
    "methods": {}
  }
}