{
  "contractName": "BuyHouse",
  "abi": [
    {
      "anonymous": false,
      "inputs": [
        {
          "indexed": false,
          "internalType": "string",
          "name": "sellerName",
          "type": "string"
        },
        {
          "indexed": false,
          "internalType": "string",
          "name": "buyerName",
          "type": "string"
        },
        {
          "indexed": false,
          "internalType": "string",
          "name": "houseAddress",
          "type": "string"
        },
        {
          "indexed": false,
          "internalType": "uint256",
          "name": "housePrice",
          "type": "uint256"
        }
      ],
      "name": "BuyLogText",
      "type": "event"
    },
    {
      "inputs": [
        {
          "internalType": "uint256",
          "name": "",
          "type": "uint256"
        }
      ],
      "name": "House",
      "outputs": [
        {
          "internalType": "string",
          "name": "locations",
          "type": "string"
        },
        {
          "internalType": "string",
          "name": "sellerName",
          "type": "string"
        },
        {
          "internalType": "string",
          "name": "sellerImg",
          "type": "string"
        },
        {
          "internalType": "string",
          "name": "buyerName",
          "type": "string"
        },
        {
          "internalType": "string",
          "name": "houseAddress",
          "type": "string"
        },
        {
          "internalType": "uint256",
          "name": "housePrice",
          "type": "uint256"
        },
        {
          "internalType": "string",
          "name": "tokenId",
          "type": "string"
        },
        {
          "internalType": "address",
          "name": "buyerAddress",
          "type": "address"
        }
      ],
      "stateMutability": "view",
      "type": "function",
      "constant": true
    },
    {
      "inputs": [
        {
          "internalType": "address",
          "name": "sellerAddress",
          "type": "address"
        },
        {
          "internalType": "string",
          "name": "locations",
          "type": "string"
        },
        {
          "internalType": "string",
          "name": "sellerName",
          "type": "string"
        },
        {
          "internalType": "string",
          "name": "sellerImg",
          "type": "string"
        },
        {
          "internalType": "string",
          "name": "buyerName",
          "type": "string"
        },
        {
          "internalType": "string",
          "name": "houseAddress",
          "type": "string"
        },
        {
          "internalType": "uint256",
          "name": "housePrice",
          "type": "uint256"
        },
        {
          "internalType": "string",
          "name": "tokenId",
          "type": "string"
        }
      ],
      "name": "buyRealEstate",
      "outputs": [],
      "stateMutability": "payable",
      "type": "function",
      "payable": true
    },
    {
      "inputs": [],
      "name": "readRealEstate",
      "outputs": [
        {
          "components": [
            {
              "internalType": "string",
              "name": "locations",
              "type": "string"
            },
            {
              "internalType": "string",
              "name": "sellerName",
              "type": "string"
            },
            {
              "internalType": "string",
              "name": "sellerImg",
              "type": "string"
            },
            {
              "internalType": "string",
              "name": "buyerName",
              "type": "string"
            },
            {
              "internalType": "string",
              "name": "houseAddress",
              "type": "string"
            },
            {
              "internalType": "uint256",
              "name": "housePrice",
              "type": "uint256"
            },
            {
              "internalType": "string",
              "name": "tokenId",
              "type": "string"
            },
            {
              "internalType": "address",
              "name": "buyerAddress",
              "type": "address"
            }
          ],
          "internalType": "struct BuyHouse.HouseInfo[]",
          "name": "",
          "type": "tuple[]"
        }
      ],
      "stateMutability": "view",
      "type": "function",
      "constant": true
    }
  ],
  "bytecode": "0x608060405234801561001057600080fd5b506112e0806100206000396000f3fe6080604052600436106100345760003560e01c80633839efe114610039578063505d3eb21461007d578063c9dbbc3a14610099575b600080fd5b34801561004557600080fd5b50610060600480360381019061005b9190610d19565b6100c4565b604051610074989796959493929190610f6e565b60405180910390f35b61009760048036038101906100929190610bd7565b61046c565b005b3480156100a557600080fd5b506100ae610676565b6040516100bb9190610f4c565b60405180910390f35b600081815481106100d457600080fd5b90600052602060002090600802016000915090508060000180546100f7906111aa565b80601f0160208091040260200160405190810160405280929190818152602001828054610123906111aa565b80156101705780601f1061014557610100808354040283529160200191610170565b820191906000526020600020905b81548152906001019060200180831161015357829003601f168201915b505050505090806001018054610185906111aa565b80601f01602080910402602001604051908101604052809291908181526020018280546101b1906111aa565b80156101fe5780601f106101d3576101008083540402835291602001916101fe565b820191906000526020600020905b8154815290600101906020018083116101e157829003601f168201915b505050505090806002018054610213906111aa565b80601f016020809104026020016040519081016040528092919081815260200182805461023f906111aa565b801561028c5780601f106102615761010080835404028352916020019161028c565b820191906000526020600020905b81548152906001019060200180831161026f57829003601f168201915b5050505050908060030180546102a1906111aa565b80601f01602080910402602001604051908101604052809291908181526020018280546102cd906111aa565b801561031a5780601f106102ef5761010080835404028352916020019161031a565b820191906000526020600020905b8154815290600101906020018083116102fd57829003601f168201915b50505050509080600401805461032f906111aa565b80601f016020809104026020016040519081016040528092919081815260200182805461035b906111aa565b80156103a85780601f1061037d576101008083540402835291602001916103a8565b820191906000526020600020905b81548152906001019060200180831161038b57829003601f168201915b5050505050908060050154908060060180546103c3906111aa565b80601f01602080910402602001604051908101604052809291908181526020018280546103ef906111aa565b801561043c5780601f106104115761010080835404028352916020019161043c565b820191906000526020600020905b81548152906001019060200180831161041f57829003601f168201915b5050505050908060070160009054906101000a900473ffffffffffffffffffffffffffffffffffffffff16905088565b8773ffffffffffffffffffffffffffffffffffffffff166108fc349081150290604051600060405180830381858888f193505050501580156104b2573d6000803e3d6000fd5b5060006040518061010001604052808981526020018881526020018781526020018681526020018581526020018481526020018381526020013373ffffffffffffffffffffffffffffffffffffffff168152509080600181540180825580915050600190039060005260206000209060080201600090919091909150600082015181600001908051906020019061054a929190610aa2565b506020820151816001019080519060200190610567929190610aa2565b506040820151816002019080519060200190610584929190610aa2565b5060608201518160030190805190602001906105a1929190610aa2565b5060808201518160040190805190602001906105be929190610aa2565b5060a0820151816005015560c08201518160060190805190602001906105e5929190610aa2565b5060e08201518160070160006101000a81548173ffffffffffffffffffffffffffffffffffffffff021916908373ffffffffffffffffffffffffffffffffffffffff16021790555050507f2dc456ad87fded0a4e0743995e587f26f9fdd528795ad41883167419d6903a07868585856040516106649493929190611016565b60405180910390a15050505050505050565b60606000805480602002602001604051908101604052809291908181526020016000905b82821015610a995783829060005260206000209060080201604051806101000160405290816000820180546106ce906111aa565b80601f01602080910402602001604051908101604052809291908181526020018280546106fa906111aa565b80156107475780601f1061071c57610100808354040283529160200191610747565b820191906000526020600020905b81548152906001019060200180831161072a57829003601f168201915b50505050508152602001600182018054610760906111aa565b80601f016020809104026020016040519081016040528092919081815260200182805461078c906111aa565b80156107d95780601f106107ae576101008083540402835291602001916107d9565b820191906000526020600020905b8154815290600101906020018083116107bc57829003601f168201915b505050505081526020016002820180546107f2906111aa565b80601f016020809104026020016040519081016040528092919081815260200182805461081e906111aa565b801561086b5780601f106108405761010080835404028352916020019161086b565b820191906000526020600020905b81548152906001019060200180831161084e57829003601f168201915b50505050508152602001600382018054610884906111aa565b80601f01602080910402602001604051908101604052809291908181526020018280546108b0906111aa565b80156108fd5780601f106108d2576101008083540402835291602001916108fd565b820191906000526020600020905b8154815290600101906020018083116108e057829003601f168201915b50505050508152602001600482018054610916906111aa565b80601f0160208091040260200160405190810160405280929190818152602001828054610942906111aa565b801561098f5780601f106109645761010080835404028352916020019161098f565b820191906000526020600020905b81548152906001019060200180831161097257829003601f168201915b50505050508152602001600582015481526020016006820180546109b2906111aa565b80601f01602080910402602001604051908101604052809291908181526020018280546109de906111aa565b8015610a2b5780601f10610a0057610100808354040283529160200191610a2b565b820191906000526020600020905b815481529060010190602001808311610a0e57829003601f168201915b505050505081526020016007820160009054906101000a900473ffffffffffffffffffffffffffffffffffffffff1673ffffffffffffffffffffffffffffffffffffffff1673ffffffffffffffffffffffffffffffffffffffff16815250508152602001906001019061069a565b50505050905090565b828054610aae906111aa565b90600052602060002090601f016020900481019282610ad05760008555610b17565b82601f10610ae957805160ff1916838001178555610b17565b82800160010185558215610b17579182015b82811115610b16578251825591602001919060010190610afb565b5b509050610b249190610b28565b5090565b5b80821115610b41576000816000905550600101610b29565b5090565b6000610b58610b5384611095565b611070565b905082815260208101848484011115610b7057600080fd5b610b7b848285611168565b509392505050565b600081359050610b928161127c565b92915050565b600082601f830112610ba957600080fd5b8135610bb9848260208601610b45565b91505092915050565b600081359050610bd181611293565b92915050565b600080600080600080600080610100898b031215610bf457600080fd5b6000610c028b828c01610b83565b985050602089013567ffffffffffffffff811115610c1f57600080fd5b610c2b8b828c01610b98565b975050604089013567ffffffffffffffff811115610c4857600080fd5b610c548b828c01610b98565b965050606089013567ffffffffffffffff811115610c7157600080fd5b610c7d8b828c01610b98565b955050608089013567ffffffffffffffff811115610c9a57600080fd5b610ca68b828c01610b98565b94505060a089013567ffffffffffffffff811115610cc357600080fd5b610ccf8b828c01610b98565b93505060c0610ce08b828c01610bc2565b92505060e089013567ffffffffffffffff811115610cfd57600080fd5b610d098b828c01610b98565b9150509295985092959890939650565b600060208284031215610d2b57600080fd5b6000610d3984828501610bc2565b91505092915050565b6000610d4e8383610e5b565b905092915050565b610d5f8161112c565b82525050565b610d6e8161112c565b82525050565b6000610d7f826110d6565b610d8981856110f9565b935083602082028501610d9b856110c6565b8060005b85811015610dd75784840389528151610db88582610d42565b9450610dc3836110ec565b925060208a01995050600181019050610d9f565b50829750879550505050505092915050565b6000610df4826110e1565b610dfe818561110a565b9350610e0e818560208601611177565b610e178161126b565b840191505092915050565b6000610e2d826110e1565b610e37818561111b565b9350610e47818560208601611177565b610e508161126b565b840191505092915050565b6000610100830160008301518482036000860152610e798282610de9565b91505060208301518482036020860152610e938282610de9565b91505060408301518482036040860152610ead8282610de9565b91505060608301518482036060860152610ec78282610de9565b91505060808301518482036080860152610ee18282610de9565b91505060a0830151610ef660a0860182610f2e565b5060c083015184820360c0860152610f0e8282610de9565b91505060e0830151610f2360e0860182610d56565b508091505092915050565b610f378161115e565b82525050565b610f468161115e565b82525050565b60006020820190508181036000830152610f668184610d74565b905092915050565b6000610100820190508181036000830152610f89818b610e22565b90508181036020830152610f9d818a610e22565b90508181036040830152610fb18189610e22565b90508181036060830152610fc58188610e22565b90508181036080830152610fd98187610e22565b9050610fe860a0830186610f3d565b81810360c0830152610ffa8185610e22565b905061100960e0830184610d65565b9998505050505050505050565b600060808201905081810360008301526110308187610e22565b905081810360208301526110448186610e22565b905081810360408301526110588185610e22565b90506110676060830184610f3d565b95945050505050565b600061107a61108b565b905061108682826111dc565b919050565b6000604051905090565b600067ffffffffffffffff8211156110b0576110af61123c565b5b6110b98261126b565b9050602081019050919050565b6000819050602082019050919050565b600081519050919050565b600081519050919050565b6000602082019050919050565b600082825260208201905092915050565b600082825260208201905092915050565b600082825260208201905092915050565b60006111378261113e565b9050919050565b600073ffffffffffffffffffffffffffffffffffffffff82169050919050565b6000819050919050565b82818337600083830152505050565b60005b8381101561119557808201518184015260208101905061117a565b838111156111a4576000848401525b50505050565b600060028204905060018216806111c257607f821691505b602082108114156111d6576111d561120d565b5b50919050565b6111e58261126b565b810181811067ffffffffffffffff821117156112045761120361123c565b5b80604052505050565b7f4e487b7100000000000000000000000000000000000000000000000000000000600052602260045260246000fd5b7f4e487b7100000000000000000000000000000000000000000000000000000000600052604160045260246000fd5b6000601f19601f8301169050919050565b6112858161112c565b811461129057600080fd5b50565b61129c8161115e565b81146112a757600080fd5b5056fea2646970667358221220bae82b72a4f6922f1db6d76c51251e773d38642ccce00b3454059e5999be0a0d64736f6c63430008010033",
  "immutableReferences": {},
  "source": "// SPDX-License-Identifier: MIT\npragma solidity >=0.4.23;\npragma experimental ABIEncoderV2;\n\ncontract BuyHouse {\n\n  struct HouseInfo{\n    string locations;\n    string sellerName;\n    string sellerImg;\n    string buyerName;    \n    string houseAddress;\n    uint256 housePrice;\n    string tokenId;\n    address buyerAddress;\n  }\n\n  event BuyLogText(string sellerName, string buyerName, string houseAddress, uint256 housePrice);\n\n  HouseInfo[] public House;\n\n  function buyRealEstate(address sellerAddress, string memory locations, string memory sellerName,string memory sellerImg, string memory buyerName, string memory houseAddress, uint256 housePrice, string memory tokenId )public payable{\n    payable(sellerAddress).transfer(msg.value);\n    House.push(HouseInfo( locations, sellerName, sellerImg, buyerName, houseAddress, housePrice, tokenId, msg.sender));\n    emit BuyLogText(sellerName ,buyerName , houseAddress , housePrice );\n  }\n\n  function readRealEstate() public view returns(HouseInfo[] memory){\n      return House;    \n  }\n}\n",
  "sourcePath": "C:\\Users\\user\\Desktop\\2022\\main\\Front\\truffle\\contracts\\BuyHouse.sol",
  "compiler": {
    "name": "solc",
    "version": "0.8.1+commit.df193b15.Emscripten.clang"
  },
  "schemaVersion": "3.4.8",
  "updatedAt": "2022-07-18T07:10:56.522Z",
  "networkType": "ethereum",
  "devdoc": {
    "kind": "dev",
    "methods": {},
    "version": 1
  },
  "userdoc": {
    "kind": "user",
    "methods": {},
    "version": 1
  }
}