{
  "contractName": "NFT",
  "abi": [
    {
      "inputs": [],
      "stateMutability": "nonpayable",
      "type": "constructor"
    },
    {
      "anonymous": false,
      "inputs": [
        {
          "indexed": true,
          "internalType": "address",
          "name": "owner",
          "type": "address"
        },
        {
          "indexed": true,
          "internalType": "address",
          "name": "approved",
          "type": "address"
        },
        {
          "indexed": true,
          "internalType": "uint256",
          "name": "tokenId",
          "type": "uint256"
        }
      ],
      "name": "Approval",
      "type": "event"
    },
    {
      "anonymous": false,
      "inputs": [
        {
          "indexed": true,
          "internalType": "address",
          "name": "owner",
          "type": "address"
        },
        {
          "indexed": true,
          "internalType": "address",
          "name": "operator",
          "type": "address"
        },
        {
          "indexed": false,
          "internalType": "bool",
          "name": "approved",
          "type": "bool"
        }
      ],
      "name": "ApprovalForAll",
      "type": "event"
    },
    {
      "anonymous": false,
      "inputs": [
        {
          "indexed": true,
          "internalType": "address",
          "name": "from",
          "type": "address"
        },
        {
          "indexed": true,
          "internalType": "address",
          "name": "to",
          "type": "address"
        },
        {
          "indexed": true,
          "internalType": "uint256",
          "name": "tokenId",
          "type": "uint256"
        }
      ],
      "name": "Transfer",
      "type": "event"
    },
    {
      "inputs": [
        {
          "internalType": "address",
          "name": "to",
          "type": "address"
        },
        {
          "internalType": "uint256",
          "name": "tokenId",
          "type": "uint256"
        }
      ],
      "name": "approve",
      "outputs": [],
      "stateMutability": "nonpayable",
      "type": "function"
    },
    {
      "inputs": [
        {
          "internalType": "address",
          "name": "owner",
          "type": "address"
        }
      ],
      "name": "balanceOf",
      "outputs": [
        {
          "internalType": "uint256",
          "name": "",
          "type": "uint256"
        }
      ],
      "stateMutability": "view",
      "type": "function",
      "constant": true
    },
    {
      "inputs": [
        {
          "internalType": "uint256",
          "name": "tokenId",
          "type": "uint256"
        }
      ],
      "name": "getApproved",
      "outputs": [
        {
          "internalType": "address",
          "name": "",
          "type": "address"
        }
      ],
      "stateMutability": "view",
      "type": "function",
      "constant": true
    },
    {
      "inputs": [
        {
          "internalType": "address",
          "name": "owner",
          "type": "address"
        },
        {
          "internalType": "address",
          "name": "operator",
          "type": "address"
        }
      ],
      "name": "isApprovedForAll",
      "outputs": [
        {
          "internalType": "bool",
          "name": "",
          "type": "bool"
        }
      ],
      "stateMutability": "view",
      "type": "function",
      "constant": true
    },
    {
      "inputs": [],
      "name": "name",
      "outputs": [
        {
          "internalType": "string",
          "name": "",
          "type": "string"
        }
      ],
      "stateMutability": "view",
      "type": "function",
      "constant": true
    },
    {
      "inputs": [
        {
          "internalType": "uint256",
          "name": "tokenId",
          "type": "uint256"
        }
      ],
      "name": "ownerOf",
      "outputs": [
        {
          "internalType": "address",
          "name": "",
          "type": "address"
        }
      ],
      "stateMutability": "view",
      "type": "function",
      "constant": true
    },
    {
      "inputs": [
        {
          "internalType": "address",
          "name": "from",
          "type": "address"
        },
        {
          "internalType": "address",
          "name": "to",
          "type": "address"
        },
        {
          "internalType": "uint256",
          "name": "tokenId",
          "type": "uint256"
        }
      ],
      "name": "safeTransferFrom",
      "outputs": [],
      "stateMutability": "nonpayable",
      "type": "function"
    },
    {
      "inputs": [
        {
          "internalType": "address",
          "name": "from",
          "type": "address"
        },
        {
          "internalType": "address",
          "name": "to",
          "type": "address"
        },
        {
          "internalType": "uint256",
          "name": "tokenId",
          "type": "uint256"
        },
        {
          "internalType": "bytes",
          "name": "data",
          "type": "bytes"
        }
      ],
      "name": "safeTransferFrom",
      "outputs": [],
      "stateMutability": "nonpayable",
      "type": "function"
    },
    {
      "inputs": [
        {
          "internalType": "address",
          "name": "operator",
          "type": "address"
        },
        {
          "internalType": "bool",
          "name": "approved",
          "type": "bool"
        }
      ],
      "name": "setApprovalForAll",
      "outputs": [],
      "stateMutability": "nonpayable",
      "type": "function"
    },
    {
      "inputs": [
        {
          "internalType": "bytes4",
          "name": "interfaceId",
          "type": "bytes4"
        }
      ],
      "name": "supportsInterface",
      "outputs": [
        {
          "internalType": "bool",
          "name": "",
          "type": "bool"
        }
      ],
      "stateMutability": "view",
      "type": "function",
      "constant": true
    },
    {
      "inputs": [],
      "name": "symbol",
      "outputs": [
        {
          "internalType": "string",
          "name": "",
          "type": "string"
        }
      ],
      "stateMutability": "view",
      "type": "function",
      "constant": true
    },
    {
      "inputs": [
        {
          "internalType": "address",
          "name": "from",
          "type": "address"
        },
        {
          "internalType": "address",
          "name": "to",
          "type": "address"
        },
        {
          "internalType": "uint256",
          "name": "tokenId",
          "type": "uint256"
        }
      ],
      "name": "transferFrom",
      "outputs": [],
      "stateMutability": "nonpayable",
      "type": "function"
    },
    {
      "inputs": [
        {
          "internalType": "uint256",
          "name": "tokenId",
          "type": "uint256"
        }
      ],
      "name": "tokenURI",
      "outputs": [
        {
          "internalType": "string",
          "name": "",
          "type": "string"
        }
      ],
      "stateMutability": "view",
      "type": "function",
      "constant": true
    },
    {
      "inputs": [
        {
          "internalType": "address",
          "name": "to",
          "type": "address"
        },
        {
          "internalType": "string",
          "name": "tokenURI",
          "type": "string"
        }
      ],
      "name": "mintNFT",
      "outputs": [
        {
          "internalType": "uint256",
          "name": "",
          "type": "uint256"
        }
      ],
      "stateMutability": "nonpayable",
      "type": "function"
    },
    {
      "inputs": [
        {
          "internalType": "uint256",
          "name": "tokenId",
          "type": "uint256"
        }
      ],
      "name": "showTokenOwner",
      "outputs": [
        {
          "internalType": "address",
          "name": "",
          "type": "address"
        }
      ],
      "stateMutability": "view",
      "type": "function",
      "constant": true
    }
  ],
  "bytecode": "0x60806040523480156200001157600080fd5b506040518060400160405280600681526020017f41706561636800000000000000000000000000000000000000000000000000008152506040518060400160405280600381526020017f4170630000000000000000000000000000000000000000000000000000000000815250816000908051906020019062000096929190620000b8565b508060019080519060200190620000af929190620000b8565b505050620001cd565b828054620000c69062000168565b90600052602060002090601f016020900481019282620000ea576000855562000136565b82601f106200010557805160ff191683800117855562000136565b8280016001018555821562000136579182015b828111156200013557825182559160200191906001019062000118565b5b50905062000145919062000149565b5090565b5b80821115620001645760008160009055506001016200014a565b5090565b600060028204905060018216806200018157607f821691505b602082108114156200019857620001976200019e565b5b50919050565b7f4e487b7100000000000000000000000000000000000000000000000000000000600052602260045260246000fd5b61240780620001dd6000396000f3fe608060405234801561001057600080fd5b50600436106100f55760003560e01c806370a0823111610097578063c87b56dd11610066578063c87b56dd14610282578063ddc01df8146102b2578063e985e9c5146102e2578063eacabe1414610312576100f5565b806370a08231146101fc57806395d89b411461022c578063a22cb4651461024a578063b88d4fde14610266576100f5565b8063095ea7b3116100d3578063095ea7b31461017857806323b872dd1461019457806342842e0e146101b05780636352211e146101cc576100f5565b806301ffc9a7146100fa57806306fdde031461012a578063081812fc14610148575b600080fd5b610114600480360381019061010f91906118ee565b610342565b6040516101219190611bf0565b60405180910390f35b610132610424565b60405161013f9190611c0b565b60405180910390f35b610162600480360381019061015d9190611940565b6104b6565b60405161016f9190611b89565b60405180910390f35b610192600480360381019061018d91906118b2565b6104fc565b005b6101ae60048036038101906101a99190611758565b610614565b005b6101ca60048036038101906101c59190611758565b610674565b005b6101e660048036038101906101e19190611940565b610694565b6040516101f39190611b89565b60405180910390f35b610216600480360381019061021191906116f3565b610746565b6040516102239190611d8d565b60405180910390f35b6102346107fe565b6040516102419190611c0b565b60405180910390f35b610264600480360381019061025f9190611822565b610890565b005b610280600480360381019061027b91906117a7565b6108a6565b005b61029c60048036038101906102979190611940565b610908565b6040516102a99190611c0b565b60405180910390f35b6102cc60048036038101906102c79190611940565b6109ad565b6040516102d99190611b89565b60405180910390f35b6102fc60048036038101906102f7919061171c565b6109c4565b6040516103099190611bf0565b60405180910390f35b61032c6004803603810190610327919061185e565b610a58565b6040516103399190611d8d565b60405180910390f35b60007f80ac58cd000000000000000000000000000000000000000000000000000000007bffffffffffffffffffffffffffffffffffffffffffffffffffffffff1916827bffffffffffffffffffffffffffffffffffffffffffffffffffffffff1916148061040d57507f5b5e139f000000000000000000000000000000000000000000000000000000007bffffffffffffffffffffffffffffffffffffffffffffffffffffffff1916827bffffffffffffffffffffffffffffffffffffffffffffffffffffffff1916145b8061041d575061041c82610aae565b5b9050919050565b60606000805461043390611fa7565b80601f016020809104026020016040519081016040528092919081815260200182805461045f90611fa7565b80156104ac5780601f10610481576101008083540402835291602001916104ac565b820191906000526020600020905b81548152906001019060200180831161048f57829003601f168201915b5050505050905090565b60006104c182610b18565b6004600083815260200190815260200160002060009054906101000a900473ffffffffffffffffffffffffffffffffffffffff169050919050565b600061050782610694565b90508073ffffffffffffffffffffffffffffffffffffffff168373ffffffffffffffffffffffffffffffffffffffff161415610578576040517f08c379a000000000000000000000000000000000000000000000000000000000815260040161056f90611d4d565b60405180910390fd5b8073ffffffffffffffffffffffffffffffffffffffff16610597610b63565b73ffffffffffffffffffffffffffffffffffffffff1614806105c657506105c5816105c0610b63565b6109c4565b5b610605576040517f08c379a00000000000000000000000000000000000000000000000000000000081526004016105fc90611ced565b60405180910390fd5b61060f8383610b6b565b505050565b61062561061f610b63565b82610c24565b610664576040517f08c379a000000000000000000000000000000000000000000000000000000000815260040161065b90611d6d565b60405180910390fd5b61066f838383610cb9565b505050565b61068f838383604051806020016040528060008152506108a6565b505050565b6000806002600084815260200190815260200160002060009054906101000a900473ffffffffffffffffffffffffffffffffffffffff169050600073ffffffffffffffffffffffffffffffffffffffff168173ffffffffffffffffffffffffffffffffffffffff16141561073d576040517f08c379a000000000000000000000000000000000000000000000000000000000815260040161073490611d2d565b60405180910390fd5b80915050919050565b60008073ffffffffffffffffffffffffffffffffffffffff168273ffffffffffffffffffffffffffffffffffffffff1614156107b7576040517f08c379a00000000000000000000000000000000000000000000000000000000081526004016107ae90611ccd565b60405180910390fd5b600360008373ffffffffffffffffffffffffffffffffffffffff1673ffffffffffffffffffffffffffffffffffffffff168152602001908152602001600020549050919050565b60606001805461080d90611fa7565b80601f016020809104026020016040519081016040528092919081815260200182805461083990611fa7565b80156108865780601f1061085b57610100808354040283529160200191610886565b820191906000526020600020905b81548152906001019060200180831161086957829003601f168201915b5050505050905090565b6108a261089b610b63565b8383610f20565b5050565b6108b76108b1610b63565b83610c24565b6108f6576040517f08c379a00000000000000000000000000000000000000000000000000000000081526004016108ed90611d6d565b60405180910390fd5b6109028484848461108d565b50505050565b606060076000838152602001908152602001600020805461092890611fa7565b80601f016020809104026020016040519081016040528092919081815260200182805461095490611fa7565b80156109a15780601f10610976576101008083540402835291602001916109a1565b820191906000526020600020905b81548152906001019060200180831161098457829003601f168201915b50505050509050919050565b6000806109b983610694565b905080915050919050565b6000600560008473ffffffffffffffffffffffffffffffffffffffff1673ffffffffffffffffffffffffffffffffffffffff16815260200190815260200160002060008373ffffffffffffffffffffffffffffffffffffffff1673ffffffffffffffffffffffffffffffffffffffff16815260200190815260200160002060009054906101000a900460ff16905092915050565b6000610a6460066110e9565b6000610a7060066110ff565b9050610a7c848261110d565b82600760008381526020019081526020016000209080519060200190610aa3929190611517565b508091505092915050565b60007f01ffc9a7000000000000000000000000000000000000000000000000000000007bffffffffffffffffffffffffffffffffffffffffffffffffffffffff1916827bffffffffffffffffffffffffffffffffffffffffffffffffffffffff1916149050919050565b610b21816112e7565b610b60576040517f08c379a0000000000000000000000000000000000000000000000000000000008152600401610b5790611d2d565b60405180910390fd5b50565b600033905090565b816004600083815260200190815260200160002060006101000a81548173ffffffffffffffffffffffffffffffffffffffff021916908373ffffffffffffffffffffffffffffffffffffffff160217905550808273ffffffffffffffffffffffffffffffffffffffff16610bde83610694565b73ffffffffffffffffffffffffffffffffffffffff167f8c5be1e5ebec7d5bd14f71427d1e84f3dd0314c0f7b2291e5b200ac8c7c3b92560405160405180910390a45050565b600080610c3083610694565b90508073ffffffffffffffffffffffffffffffffffffffff168473ffffffffffffffffffffffffffffffffffffffff161480610c725750610c7181856109c4565b5b80610cb057508373ffffffffffffffffffffffffffffffffffffffff16610c98846104b6565b73ffffffffffffffffffffffffffffffffffffffff16145b91505092915050565b8273ffffffffffffffffffffffffffffffffffffffff16610cd982610694565b73ffffffffffffffffffffffffffffffffffffffff1614610d2f576040517f08c379a0000000000000000000000000000000000000000000000000000000008152600401610d2690611c4d565b60405180910390fd5b600073ffffffffffffffffffffffffffffffffffffffff168273ffffffffffffffffffffffffffffffffffffffff161415610d9f576040517f08c379a0000000000000000000000000000000000000000000000000000000008152600401610d9690611c8d565b60405180910390fd5b610daa838383611353565b610db5600082610b6b565b6001600360008573ffffffffffffffffffffffffffffffffffffffff1673ffffffffffffffffffffffffffffffffffffffff1681526020019081526020016000206000828254610e059190611ebd565b925050819055506001600360008473ffffffffffffffffffffffffffffffffffffffff1673ffffffffffffffffffffffffffffffffffffffff1681526020019081526020016000206000828254610e5c9190611e67565b92505081905550816002600083815260200190815260200160002060006101000a81548173ffffffffffffffffffffffffffffffffffffffff021916908373ffffffffffffffffffffffffffffffffffffffff160217905550808273ffffffffffffffffffffffffffffffffffffffff168473ffffffffffffffffffffffffffffffffffffffff167fddf252ad1be2c89b69c2b068fc378daa952ba7f163c4a11628f55a4df523b3ef60405160405180910390a4610f1b838383611358565b505050565b8173ffffffffffffffffffffffffffffffffffffffff168373ffffffffffffffffffffffffffffffffffffffff161415610f8f576040517f08c379a0000000000000000000000000000000000000000000000000000000008152600401610f8690611cad565b60405180910390fd5b80600560008573ffffffffffffffffffffffffffffffffffffffff1673ffffffffffffffffffffffffffffffffffffffff16815260200190815260200160002060008473ffffffffffffffffffffffffffffffffffffffff1673ffffffffffffffffffffffffffffffffffffffff16815260200190815260200160002060006101000a81548160ff0219169083151502179055508173ffffffffffffffffffffffffffffffffffffffff168373ffffffffffffffffffffffffffffffffffffffff167f17307eab39ab6107e8899845ad3d59bd9653f200f220920489ca2b5937696c31836040516110809190611bf0565b60405180910390a3505050565b611098848484610cb9565b6110a48484848461135d565b6110e3576040517f08c379a00000000000000000000000000000000000000000000000000000000081526004016110da90611c2d565b60405180910390fd5b50505050565b6001816000016000828254019250508190555050565b600081600001549050919050565b600073ffffffffffffffffffffffffffffffffffffffff168273ffffffffffffffffffffffffffffffffffffffff16141561117d576040517f08c379a000000000000000000000000000000000000000000000000000000000815260040161117490611d0d565b60405180910390fd5b611186816112e7565b156111c6576040517f08c379a00000000000000000000000000000000000000000000000000000000081526004016111bd90611c6d565b60405180910390fd5b6111d260008383611353565b6001600360008473ffffffffffffffffffffffffffffffffffffffff1673ffffffffffffffffffffffffffffffffffffffff16815260200190815260200160002060008282546112229190611e67565b92505081905550816002600083815260200190815260200160002060006101000a81548173ffffffffffffffffffffffffffffffffffffffff021916908373ffffffffffffffffffffffffffffffffffffffff160217905550808273ffffffffffffffffffffffffffffffffffffffff16600073ffffffffffffffffffffffffffffffffffffffff167fddf252ad1be2c89b69c2b068fc378daa952ba7f163c4a11628f55a4df523b3ef60405160405180910390a46112e360008383611358565b5050565b60008073ffffffffffffffffffffffffffffffffffffffff166002600084815260200190815260200160002060009054906101000a900473ffffffffffffffffffffffffffffffffffffffff1673ffffffffffffffffffffffffffffffffffffffff1614159050919050565b505050565b505050565b600061137e8473ffffffffffffffffffffffffffffffffffffffff166114f4565b156114e7578373ffffffffffffffffffffffffffffffffffffffff1663150b7a026113a7610b63565b8786866040518563ffffffff1660e01b81526004016113c99493929190611ba4565b602060405180830381600087803b1580156113e357600080fd5b505af192505050801561141457506040513d601f19601f820116820180604052508101906114119190611917565b60015b611497573d8060008114611444576040519150601f19603f3d011682016040523d82523d6000602084013e611449565b606091505b5060008151141561148f576040517f08c379a000000000000000000000000000000000000000000000000000000000815260040161148690611c2d565b60405180910390fd5b805181602001fd5b63150b7a0260e01b7bffffffffffffffffffffffffffffffffffffffffffffffffffffffff1916817bffffffffffffffffffffffffffffffffffffffffffffffffffffffff1916149150506114ec565b600190505b949350505050565b6000808273ffffffffffffffffffffffffffffffffffffffff163b119050919050565b82805461152390611fa7565b90600052602060002090601f016020900481019282611545576000855561158c565b82601f1061155e57805160ff191683800117855561158c565b8280016001018555821561158c579182015b8281111561158b578251825591602001919060010190611570565b5b509050611599919061159d565b5090565b5b808211156115b657600081600090555060010161159e565b5090565b60006115cd6115c884611dcd565b611da8565b9050828152602081018484840111156115e557600080fd5b6115f0848285611f65565b509392505050565b600061160b61160684611dfe565b611da8565b90508281526020810184848401111561162357600080fd5b61162e848285611f65565b509392505050565b60008135905061164581612375565b92915050565b60008135905061165a8161238c565b92915050565b60008135905061166f816123a3565b92915050565b600081519050611684816123a3565b92915050565b600082601f83011261169b57600080fd5b81356116ab8482602086016115ba565b91505092915050565b600082601f8301126116c557600080fd5b81356116d58482602086016115f8565b91505092915050565b6000813590506116ed816123ba565b92915050565b60006020828403121561170557600080fd5b600061171384828501611636565b91505092915050565b6000806040838503121561172f57600080fd5b600061173d85828601611636565b925050602061174e85828601611636565b9150509250929050565b60008060006060848603121561176d57600080fd5b600061177b86828701611636565b935050602061178c86828701611636565b925050604061179d868287016116de565b9150509250925092565b600080600080608085870312156117bd57600080fd5b60006117cb87828801611636565b94505060206117dc87828801611636565b93505060406117ed878288016116de565b925050606085013567ffffffffffffffff81111561180a57600080fd5b6118168782880161168a565b91505092959194509250565b6000806040838503121561183557600080fd5b600061184385828601611636565b92505060206118548582860161164b565b9150509250929050565b6000806040838503121561187157600080fd5b600061187f85828601611636565b925050602083013567ffffffffffffffff81111561189c57600080fd5b6118a8858286016116b4565b9150509250929050565b600080604083850312156118c557600080fd5b60006118d385828601611636565b92505060206118e4858286016116de565b9150509250929050565b60006020828403121561190057600080fd5b600061190e84828501611660565b91505092915050565b60006020828403121561192957600080fd5b600061193784828501611675565b91505092915050565b60006020828403121561195257600080fd5b6000611960848285016116de565b91505092915050565b61197281611ef1565b82525050565b61198181611f03565b82525050565b600061199282611e2f565b61199c8185611e45565b93506119ac818560208601611f74565b6119b581612097565b840191505092915050565b60006119cb82611e3a565b6119d58185611e56565b93506119e5818560208601611f74565b6119ee81612097565b840191505092915050565b6000611a06603283611e56565b9150611a11826120a8565b604082019050919050565b6000611a29602583611e56565b9150611a34826120f7565b604082019050919050565b6000611a4c601c83611e56565b9150611a5782612146565b602082019050919050565b6000611a6f602483611e56565b9150611a7a8261216f565b604082019050919050565b6000611a92601983611e56565b9150611a9d826121be565b602082019050919050565b6000611ab5602983611e56565b9150611ac0826121e7565b604082019050919050565b6000611ad8603e83611e56565b9150611ae382612236565b604082019050919050565b6000611afb602083611e56565b9150611b0682612285565b602082019050919050565b6000611b1e601883611e56565b9150611b29826122ae565b602082019050919050565b6000611b41602183611e56565b9150611b4c826122d7565b604082019050919050565b6000611b64602e83611e56565b9150611b6f82612326565b604082019050919050565b611b8381611f5b565b82525050565b6000602082019050611b9e6000830184611969565b92915050565b6000608082019050611bb96000830187611969565b611bc66020830186611969565b611bd36040830185611b7a565b8181036060830152611be58184611987565b905095945050505050565b6000602082019050611c056000830184611978565b92915050565b60006020820190508181036000830152611c2581846119c0565b905092915050565b60006020820190508181036000830152611c46816119f9565b9050919050565b60006020820190508181036000830152611c6681611a1c565b9050919050565b60006020820190508181036000830152611c8681611a3f565b9050919050565b60006020820190508181036000830152611ca681611a62565b9050919050565b60006020820190508181036000830152611cc681611a85565b9050919050565b60006020820190508181036000830152611ce681611aa8565b9050919050565b60006020820190508181036000830152611d0681611acb565b9050919050565b60006020820190508181036000830152611d2681611aee565b9050919050565b60006020820190508181036000830152611d4681611b11565b9050919050565b60006020820190508181036000830152611d6681611b34565b9050919050565b60006020820190508181036000830152611d8681611b57565b9050919050565b6000602082019050611da26000830184611b7a565b92915050565b6000611db2611dc3565b9050611dbe8282611fd9565b919050565b6000604051905090565b600067ffffffffffffffff821115611de857611de7612068565b5b611df182612097565b9050602081019050919050565b600067ffffffffffffffff821115611e1957611e18612068565b5b611e2282612097565b9050602081019050919050565b600081519050919050565b600081519050919050565b600082825260208201905092915050565b600082825260208201905092915050565b6000611e7282611f5b565b9150611e7d83611f5b565b9250827fffffffffffffffffffffffffffffffffffffffffffffffffffffffffffffffff03821115611eb257611eb161200a565b5b828201905092915050565b6000611ec882611f5b565b9150611ed383611f5b565b925082821015611ee657611ee561200a565b5b828203905092915050565b6000611efc82611f3b565b9050919050565b60008115159050919050565b60007fffffffff0000000000000000000000000000000000000000000000000000000082169050919050565b600073ffffffffffffffffffffffffffffffffffffffff82169050919050565b6000819050919050565b82818337600083830152505050565b60005b83811015611f92578082015181840152602081019050611f77565b83811115611fa1576000848401525b50505050565b60006002820490506001821680611fbf57607f821691505b60208210811415611fd357611fd2612039565b5b50919050565b611fe282612097565b810181811067ffffffffffffffff8211171561200157612000612068565b5b80604052505050565b7f4e487b7100000000000000000000000000000000000000000000000000000000600052601160045260246000fd5b7f4e487b7100000000000000000000000000000000000000000000000000000000600052602260045260246000fd5b7f4e487b7100000000000000000000000000000000000000000000000000000000600052604160045260246000fd5b6000601f19601f8301169050919050565b7f4552433732313a207472616e7366657220746f206e6f6e20455243373231526560008201527f63656976657220696d706c656d656e7465720000000000000000000000000000602082015250565b7f4552433732313a207472616e736665722066726f6d20696e636f72726563742060008201527f6f776e6572000000000000000000000000000000000000000000000000000000602082015250565b7f4552433732313a20746f6b656e20616c7265616479206d696e74656400000000600082015250565b7f4552433732313a207472616e7366657220746f20746865207a65726f2061646460008201527f7265737300000000000000000000000000000000000000000000000000000000602082015250565b7f4552433732313a20617070726f766520746f2063616c6c657200000000000000600082015250565b7f4552433732313a2061646472657373207a65726f206973206e6f74206120766160008201527f6c6964206f776e65720000000000000000000000000000000000000000000000602082015250565b7f4552433732313a20617070726f76652063616c6c6572206973206e6f7420746f60008201527f6b656e206f776e6572206e6f7220617070726f76656420666f7220616c6c0000602082015250565b7f4552433732313a206d696e7420746f20746865207a65726f2061646472657373600082015250565b7f4552433732313a20696e76616c696420746f6b656e2049440000000000000000600082015250565b7f4552433732313a20617070726f76616c20746f2063757272656e74206f776e6560008201527f7200000000000000000000000000000000000000000000000000000000000000602082015250565b7f4552433732313a2063616c6c6572206973206e6f7420746f6b656e206f776e6560008201527f72206e6f7220617070726f766564000000000000000000000000000000000000602082015250565b61237e81611ef1565b811461238957600080fd5b50565b61239581611f03565b81146123a057600080fd5b50565b6123ac81611f0f565b81146123b757600080fd5b50565b6123c381611f5b565b81146123ce57600080fd5b5056fea26469706673582212205bdcc218d51801b390f0fe848e8f8b6ecf11eea25f83cac861bb2923a4b0ff5064736f6c63430008010033",
  "immutableReferences": {},
  "source": "pragma solidity ^0.8.1;\r\n// SPDX-License-Identifier: MIT\r\nimport \"@openzeppelin/contracts/token/ERC721/ERC721.sol\";\r\nimport \"@openzeppelin/contracts/utils/Counters.sol\";\r\nimport \"@openzeppelin/contracts/access/Ownable.sol\";\r\nimport \"@openzeppelin/contracts/token/ERC721/extensions/ERC721URIStorage.sol\";\r\n\r\ncontract NFT is ERC721 {\r\n    using Counters for Counters.Counter;\r\n    Counters.Counter private deedId; //   \r\n\r\n    constructor() ERC721(\"Apeach\",\"Apc\") {}\r\n\r\n    mapping(uint => string) tokenURIs;\r\n\r\n    function tokenURI(uint256 tokenId) public view virtual override returns (string memory) {\r\n        return tokenURIs[tokenId];\r\n    }\r\n\r\n    function mintNFT(address to, string memory tokenURI) public returns (uint256)\r\n    {\r\n        deedId.increment();\r\n        uint256 newDeedId = deedId.current();\r\n        _mint(to,newDeedId);\r\n        tokenURIs[newDeedId] = tokenURI;\r\n\r\n        return newDeedId;\r\n    }\r\n\r\n    function showTokenOwner(uint256 tokenId) public view returns(address){\r\n      address tokenOwner = ownerOf(tokenId);\r\n      return tokenOwner;\r\n    }\r\n\r\n}",
  "sourcePath": "C:\\Users\\user\\Desktop\\2022\\main\\Front\\truffle\\contracts\\NFT.sol",
  "compiler": {
    "name": "solc",
    "version": "0.8.1+commit.df193b15.Emscripten.clang"
  },
  "schemaVersion": "3.4.8",
  "updatedAt": "2022-07-13T08:33:31.941Z",
  "networkType": "ethereum",
  "devdoc": {
    "kind": "dev",
    "methods": {
      "approve(address,uint256)": {
        "details": "See {IERC721-approve}."
      },
      "balanceOf(address)": {
        "details": "See {IERC721-balanceOf}."
      },
      "getApproved(uint256)": {
        "details": "See {IERC721-getApproved}."
      },
      "isApprovedForAll(address,address)": {
        "details": "See {IERC721-isApprovedForAll}."
      },
      "name()": {
        "details": "See {IERC721Metadata-name}."
      },
      "ownerOf(uint256)": {
        "details": "See {IERC721-ownerOf}."
      },
      "safeTransferFrom(address,address,uint256)": {
        "details": "See {IERC721-safeTransferFrom}."
      },
      "safeTransferFrom(address,address,uint256,bytes)": {
        "details": "See {IERC721-safeTransferFrom}."
      },
      "setApprovalForAll(address,bool)": {
        "details": "See {IERC721-setApprovalForAll}."
      },
      "supportsInterface(bytes4)": {
        "details": "See {IERC165-supportsInterface}."
      },
      "symbol()": {
        "details": "See {IERC721Metadata-symbol}."
      },
      "tokenURI(uint256)": {
        "details": "See {IERC721Metadata-tokenURI}."
      },
      "transferFrom(address,address,uint256)": {
        "details": "See {IERC721-transferFrom}."
      }
    },
    "version": 1
  },
  "userdoc": {
    "kind": "user",
    "methods": {},
    "version": 1
  }
}