{
  "contractName": "RealEstate",
  "abi": [
    {
      "constant": true,
      "inputs": [],
      "name": "owner",
      "outputs": [
        {
          "name": "",
          "type": "address"
        }
      ],
      "payable": false,
      "stateMutability": "view",
      "type": "function"
    },
    {
      "constant": true,
      "inputs": [
        {
          "name": "",
          "type": "uint256"
        }
      ],
      "name": "buyerInfo",
      "outputs": [
        {
          "name": "buyerAddress",
          "type": "address"
        },
        {
          "name": "name",
          "type": "string"
        },
        {
          "name": "age",
          "type": "uint256"
        }
      ],
      "payable": false,
      "stateMutability": "view",
      "type": "function"
    },
    {
      "constant": true,
      "inputs": [
        {
          "name": "",
          "type": "uint256"
        }
      ],
      "name": "buyers",
      "outputs": [
        {
          "name": "",
          "type": "address"
        }
      ],
      "payable": false,
      "stateMutability": "view",
      "type": "function"
    },
    {
      "inputs": [],
      "payable": false,
      "stateMutability": "nonpayable",
      "type": "constructor"
    },
    {
      "anonymous": false,
      "inputs": [
        {
          "indexed": false,
          "name": "_buyer",
          "type": "address"
        },
        {
          "indexed": false,
          "name": "_id",
          "type": "uint256"
        }
      ],
      "name": "LogBuyRealEstate",
      "type": "event"
    },
    {
      "constant": false,
      "inputs": [
        {
          "name": "_id",
          "type": "uint256"
        },
        {
          "name": "_name",
          "type": "string"
        },
        {
          "name": "_age",
          "type": "uint256"
        }
      ],
      "name": "buyRealEstate",
      "outputs": [],
      "payable": true,
      "stateMutability": "payable",
      "type": "function"
    }
  ],
  "bytecode": "0x608060405234801561001057600080fd5b5033600160006101000a81548173ffffffffffffffffffffffffffffffffffffffff021916908373ffffffffffffffffffffffffffffffffffffffff160217905550610683806100616000396000f300608060405260043610610062576000357c0100000000000000000000000000000000000000000000000000000000900463ffffffff1680638da5cb5b14610067578063a9c1ab9e146100be578063e377e9661461012e578063f2aa82181461020e575b600080fd5b34801561007357600080fd5b5061007c61027b565b604051808273ffffffffffffffffffffffffffffffffffffffff1673ffffffffffffffffffffffffffffffffffffffff16815260200191505060405180910390f35b61012c60048036038101908080359060200190929190803590602001908201803590602001908080601f0160208091040260200160405190810160405280939291908181526020018383808284378201915050505050509192919290803590602001909291905050506102a1565b005b34801561013a57600080fd5b506101596004803603810190808035906020019092919050505061049b565b604051808473ffffffffffffffffffffffffffffffffffffffff1673ffffffffffffffffffffffffffffffffffffffff16815260200180602001838152602001828103825284818151815260200191508051906020019080838360005b838110156101d15780820151818401526020810190506101b6565b50505050905090810190601f1680156101fe5780820380516001836020036101000a031916815260200191505b5094505050505060405180910390f35b34801561021a57600080fd5b506102396004803603810190808035906020019092919050505061057d565b604051808273ffffffffffffffffffffffffffffffffffffffff1673ffffffffffffffffffffffffffffffffffffffff16815260200191505060405180910390f35b600160009054906101000a900473ffffffffffffffffffffffffffffffffffffffff1681565b600083101580156102b3575060098311155b15156102be57600080fd5b33600284600a811015156102ce57fe5b0160006101000a81548173ffffffffffffffffffffffffffffffffffffffff021916908373ffffffffffffffffffffffffffffffffffffffff1602179055506060604051908101604052803373ffffffffffffffffffffffffffffffffffffffff1681526020018381526020018281525060008085815260200190815260200160002060008201518160000160006101000a81548173ffffffffffffffffffffffffffffffffffffffff021916908373ffffffffffffffffffffffffffffffffffffffff16021790555060208201518160010190805190602001906103b49291906105b2565b5060408201518160020155905050600160009054906101000a900473ffffffffffffffffffffffffffffffffffffffff1673ffffffffffffffffffffffffffffffffffffffff166108fc349081150290604051600060405180830381858888f1935050505015801561042a573d6000803e3d6000fd5b507f0868a2b77ef5243ab424f87952a349bc823a92fd01d9b45d2fec78b8eafb586b3384604051808373ffffffffffffffffffffffffffffffffffffffff1673ffffffffffffffffffffffffffffffffffffffff1681526020018281526020019250505060405180910390a1505050565b60006020528060005260406000206000915090508060000160009054906101000a900473ffffffffffffffffffffffffffffffffffffffff1690806001018054600181600116156101000203166002900480601f01602080910402602001604051908101604052809291908181526020018280546001816001161561010002031660029004801561056d5780601f106105425761010080835404028352916020019161056d565b820191906000526020600020905b81548152906001019060200180831161055057829003601f168201915b5050505050908060020154905083565b600281600a8110151561058c57fe5b016000915054906101000a900473ffffffffffffffffffffffffffffffffffffffff1681565b828054600181600116156101000203166002900490600052602060002090601f016020900481019282601f106105f357805160ff1916838001178555610621565b82800160010185558215610621579182015b82811115610620578251825591602001919060010190610605565b5b50905061062e9190610632565b5090565b61065491905b80821115610650576000816000905550600101610638565b5090565b905600a165627a7a7230582034bf086e650463777d0c4842d76370c25024a9e1eaa92f28a70b599d97a4560e0029",
  "source": "// SPDX-License-Identifier: MIT\r\npragma solidity >=0.4.23 <0.9.0;\r\n\r\ncontract RealEstate {\r\n\r\n    struct Buyer {\r\n        address buyerAddress; // 매입자의 계정 주소\r\n        string name;\r\n        uint age;\r\n    }\r\n\r\n    mapping (uint => Buyer) public buyerInfo; // 매물의 id 키값 => 매입자의 정보\r\n\r\n    address public owner; // public으로 만들면 getter 자동으로 생김\r\n    address[10] public buyers; // 매입자 계정 주소 저장. 매물이 10개니까 10개\r\n\r\n    event LogBuyRealEstate (\r\n        address _buyer,\r\n        uint _id\r\n    );\r\n\r\n    constructor() public {\r\n        owner = msg.sender;\r\n    }\r\n\r\n    // 매물 id, 매입자 이름, 매입자 나이\r\n    function buyRealEstate(uint _id, string _name, uint _age) public payable { // 이더를 이 함수로 보내는 것\r\n        require(_id >= 0 && _id <= 9);\r\n        buyers[_id] = msg.sender; // 이 메시지 보낸 사람이 사는거니까!\r\n        buyerInfo[_id] = Buyer(msg.sender, _name, _age); // 매입된 매물의 매입자 정보 매핑\r\n\r\n        owner.transfer(msg.value); // 매입가를 owner 계정으로 전송\r\n        // 여기에는 wei만 들어가서 프론트엔드에서 ether를 wei로 변경시켜줘야함\r\n\r\n        emit LogBuyRealEstate(msg.sender, _id); // 이벤트를 내보내겠다!\r\n    }\r\n}\r\n",
  "sourcePath": "C:\\Users\\cyr50\\OneDrive\\바탕 화면\\비트고급 프로젝트_tuffle\\Front\\truffle\\contracts\\RealEstate.sol",
  "compiler": {
    "name": "solc",
    "version": "0.4.23+commit.124ca40d.Emscripten.clang"
  },
  "schemaVersion": "3.4.7",
  "updatedAt": "2022-06-30T05:30:04.268Z",
  "networkType": "ethereum",
  "devdoc": {
    "methods": {}
  },
  "userdoc": {
    "methods": {}
  }
}