{
  "contractName": "RealEstate",
  "abi": [
    {
      "constant": true,
      "inputs": [
        {
          "name": "",
          "type": "uint256"
        }
      ],
      "name": "Deajeon",
      "outputs": [
        {
          "name": "sellerName",
          "type": "string"
        },
        {
          "name": "buyerName",
          "type": "string"
        },
        {
          "name": "houseAddress",
          "type": "string"
        },
        {
          "name": "housePrice",
          "type": "uint256"
        }
      ],
      "payable": false,
      "stateMutability": "view",
      "type": "function"
    },
    {
      "constant": true,
      "inputs": [
        {
          "name": "",
          "type": "uint256"
        }
      ],
      "name": "Seoul",
      "outputs": [
        {
          "name": "sellerName",
          "type": "string"
        },
        {
          "name": "buyerName",
          "type": "string"
        },
        {
          "name": "houseAddress",
          "type": "string"
        },
        {
          "name": "housePrice",
          "type": "uint256"
        }
      ],
      "payable": false,
      "stateMutability": "view",
      "type": "function"
    },
    {
      "inputs": [],
      "payable": false,
      "stateMutability": "nonpayable",
      "type": "constructor"
    },
    {
      "anonymous": false,
      "inputs": [
        {
          "indexed": false,
          "name": "sellerName",
          "type": "string"
        },
        {
          "indexed": false,
          "name": "buyerName",
          "type": "string"
        },
        {
          "indexed": false,
          "name": "houseAddress",
          "type": "string"
        },
        {
          "indexed": false,
          "name": "housePrice",
          "type": "uint256"
        }
      ],
      "name": "BuyLogText",
      "type": "event"
    },
    {
      "constant": true,
      "inputs": [],
      "name": "PrintAddress",
      "outputs": [
        {
          "name": "",
          "type": "address"
        }
      ],
      "payable": false,
      "stateMutability": "view",
      "type": "function"
    },
    {
      "constant": false,
      "inputs": [
        {
          "name": "sellerAddress",
          "type": "address"
        },
        {
          "name": "locations",
          "type": "string"
        },
        {
          "name": "sellerName",
          "type": "string"
        },
        {
          "name": "buyerName",
          "type": "string"
        },
        {
          "name": "houseAddress",
          "type": "string"
        },
        {
          "name": "housePrice",
          "type": "uint256"
        }
      ],
      "name": "buyRealEstate",
      "outputs": [],
      "payable": true,
      "stateMutability": "payable",
      "type": "function"
    },
    {
      "constant": true,
      "inputs": [
        {
          "name": "locations",
          "type": "string"
        }
      ],
      "name": "readRealEstate",
      "outputs": [
        {
          "components": [
            {
              "name": "sellerName",
              "type": "string"
            },
            {
              "name": "buyerName",
              "type": "string"
            },
            {
              "name": "houseAddress",
              "type": "string"
            },
            {
              "name": "housePrice",
              "type": "uint256"
            }
          ],
          "name": "",
          "type": "tuple[]"
        }
      ],
      "payable": false,
      "stateMutability": "view",
      "type": "function"
    }
  ],
  "bytecode": "0x608060405234801561001057600080fd5b50336000806101000a81548173ffffffffffffffffffffffffffffffffffffffff021916908373ffffffffffffffffffffffffffffffffffffffff16021790555061152f806100606000396000f30060806040526004361061006d576000357c0100000000000000000000000000000000000000000000000000000000900463ffffffff1680632b901b6a146100725780639ec8abfd146100b2578063db917c54146100ef578063dfa3a9d01461012f578063f9947d311461014b575b600080fd5b34801561007e57600080fd5b5061009960048036036100949190810190611137565b610176565b6040516100a99493929190611360565b60405180910390f35b3480156100be57600080fd5b506100d960048036036100d491908101906110f6565b61037d565b6040516100e691906112e4565b60405180910390f35b3480156100fb57600080fd5b5061011660048036036101119190810190611137565b610973565b6040516101269493929190611360565b60405180910390f35b6101496004803603610144919081019061100d565b610b7a565b005b34801561015757600080fd5b50610160610ec1565b60405161016d91906112c9565b60405180910390f35b60018181548110151561018557fe5b9060005260206000209060040201600091509050806000018054600181600116156101000203166002900480601f0160208091040260200160405190810160405280929190818152602001828054600181600116156101000203166002900480156102315780601f1061020657610100808354040283529160200191610231565b820191906000526020600020905b81548152906001019060200180831161021457829003601f168201915b505050505090806001018054600181600116156101000203166002900480601f0160208091040260200160405190810160405280929190818152602001828054600181600116156101000203166002900480156102cf5780601f106102a4576101008083540402835291602001916102cf565b820191906000526020600020905b8154815290600101906020018083116102b257829003601f168201915b505050505090806002018054600181600116156101000203166002900480601f01602080910402602001604051908101604052809291908181526020018280546001816001161561010002031660029004801561036d5780601f106103425761010080835404028352916020019161036d565b820191906000526020600020905b81548152906001019060200180831161035057829003601f168201915b5050505050908060030154905084565b606060405180807feb8c80eca08400000000000000000000000000000000000000000000000000008152506006019050604051809103902060001916826040518082805190602001908083835b6020831015156103ef57805182526020820191506020810190506020830392506103ca565b6001836020036101000a0380198251168184511680821785525050505050509050019150506040518091039020600019161415610676576001805480602002602001604051908101604052809291908181526020016000905b8282101561066b578382906000526020600020906004020160806040519081016040529081600082018054600181600116156101000203166002900480601f0160208091040260200160405190810160405280929190818152602001828054600181600116156101000203166002900480156105055780601f106104da57610100808354040283529160200191610505565b820191906000526020600020905b8154815290600101906020018083116104e857829003601f168201915b50505050508152602001600182018054600181600116156101000203166002900480601f0160208091040260200160405190810160405280929190818152602001828054600181600116156101000203166002900480156105a75780601f1061057c576101008083540402835291602001916105a7565b820191906000526020600020905b81548152906001019060200180831161058a57829003601f168201915b50505050508152602001600282018054600181600116156101000203166002900480601f0160208091040260200160405190810160405280929190818152602001828054600181600116156101000203166002900480156106495780601f1061061e57610100808354040283529160200191610649565b820191906000526020600020905b81548152906001019060200180831161062c57829003601f168201915b5050505050815260200160038201548152505081526020019060010190610448565b50505050905061096e565b60405180807fec849cec9ab800000000000000000000000000000000000000000000000000008152506006019050604051809103902060001916826040518082805190602001908083835b6020831015156106e657805182526020820191506020810190506020830392506106c1565b6001836020036101000a038019825116818451168082178552505050505050905001915050604051809103902060001916141561096d576002805480602002602001604051908101604052809291908181526020016000905b82821015610962578382906000526020600020906004020160806040519081016040529081600082018054600181600116156101000203166002900480601f0160208091040260200160405190810160405280929190818152602001828054600181600116156101000203166002900480156107fc5780601f106107d1576101008083540402835291602001916107fc565b820191906000526020600020905b8154815290600101906020018083116107df57829003601f168201915b50505050508152602001600182018054600181600116156101000203166002900480601f01602080910402602001604051908101604052809291908181526020018280546001816001161561010002031660029004801561089e5780601f106108735761010080835404028352916020019161089e565b820191906000526020600020905b81548152906001019060200180831161088157829003601f168201915b50505050508152602001600282018054600181600116156101000203166002900480601f0160208091040260200160405190810160405280929190818152602001828054600181600116156101000203166002900480156109405780601f1061091557610100808354040283529160200191610940565b820191906000526020600020905b81548152906001019060200180831161092357829003601f168201915b505050505081526020016003820154815250508152602001906001019061073f565b50505050905061096e565b5b919050565b60028181548110151561098257fe5b9060005260206000209060040201600091509050806000018054600181600116156101000203166002900480601f016020809104026020016040519081016040528092919081815260200182805460018160011615610100020316600290048015610a2e5780601f10610a0357610100808354040283529160200191610a2e565b820191906000526020600020905b815481529060010190602001808311610a1157829003601f168201915b505050505090806001018054600181600116156101000203166002900480601f016020809104026020016040519081016040528092919081815260200182805460018160011615610100020316600290048015610acc5780601f10610aa157610100808354040283529160200191610acc565b820191906000526020600020905b815481529060010190602001808311610aaf57829003601f168201915b505050505090806002018054600181600116156101000203166002900480601f016020809104026020016040519081016040528092919081815260200182805460018160011615610100020316600290048015610b6a5780601f10610b3f57610100808354040283529160200191610b6a565b820191906000526020600020905b815481529060010190602001808311610b4d57829003601f168201915b5050505050908060030154905084565b8573ffffffffffffffffffffffffffffffffffffffff166108fc349081150290604051600060405180830381858888f19350505050158015610bc0573d6000803e3d6000fd5b5060405180807feb8c80eca08400000000000000000000000000000000000000000000000000008152506006019050604051809103902060001916856040518082805190602001908083835b602083101515610c315780518252602082019150602081019050602083039250610c0c565b6001836020036101000a0380198251168184511680821785525050505050509050019150506040518091039020600019161415610d2057600160806040519081016040528086815260200185815260200184815260200183815250908060018154018082558091505090600182039060005260206000209060040201600090919290919091506000820151816000019080519060200190610cd3929190610eea565b506020820151816001019080519060200190610cf0929190610eea565b506040820151816002019080519060200190610d0d929190610eea565b5060608201518160030155505050610e7c565b60405180807fec849cec9ab800000000000000000000000000000000000000000000000000008152506006019050604051809103902060001916856040518082805190602001908083835b602083101515610d905780518252602082019150602081019050602083039250610d6b565b6001836020036101000a0380198251168184511680821785525050505050509050019150506040518091039020600019161415610e7b57600260806040519081016040528086815260200185815260200184815260200183815250908060018154018082558091505090600182039060005260206000209060040201600090919290919091506000820151816000019080519060200190610e32929190610eea565b506020820151816001019080519060200190610e4f929190610eea565b506040820151816002019080519060200190610e6c929190610eea565b50606082015181600301555050505b5b7f2dc456ad87fded0a4e0743995e587f26f9fdd528795ad41883167419d6903a0784848484604051610eb19493929190611306565b60405180910390a1505050505050565b60008060009054906101000a900473ffffffffffffffffffffffffffffffffffffffff16905090565b828054600181600116156101000203166002900490600052602060002090601f016020900481019282601f10610f2b57805160ff1916838001178555610f59565b82800160010185558215610f59579182015b82811115610f58578251825591602001919060010190610f3d565b5b509050610f669190610f6a565b5090565b610f8c91905b80821115610f88576000816000905550600101610f70565b5090565b90565b6000610f9b8235611478565b905092915050565b600082601f8301121515610fb657600080fd5b8135610fc9610fc4826113e7565b6113ba565b91508082526020830160208301858383011115610fe557600080fd5b610ff08382846114a2565b50505092915050565b60006110058235611498565b905092915050565b60008060008060008060c0878903121561102657600080fd5b600061103489828a01610f8f565b965050602087013567ffffffffffffffff81111561105157600080fd5b61105d89828a01610fa3565b955050604087013567ffffffffffffffff81111561107a57600080fd5b61108689828a01610fa3565b945050606087013567ffffffffffffffff8111156110a357600080fd5b6110af89828a01610fa3565b935050608087013567ffffffffffffffff8111156110cc57600080fd5b6110d889828a01610fa3565b92505060a06110e989828a01610ff9565b9150509295509295509295565b60006020828403121561110857600080fd5b600082013567ffffffffffffffff81111561112257600080fd5b61112e84828501610fa3565b91505092915050565b60006020828403121561114957600080fd5b600061115784828501610ff9565b91505092915050565b6111698161144e565b82525050565b600061117a82611420565b8084526020840193508360208202850161119385611413565b60005b848110156111cc5783830388526111ae838351611249565b92506111b982611441565b9150602088019750600181019050611196565b508196508694505050505092915050565b60006111e882611436565b8084526111fc8160208601602086016114b1565b611205816114e4565b602085010191505092915050565b600061121e8261142b565b8084526112328160208601602086016114b1565b61123b816114e4565b602085010191505092915050565b600060808301600083015184820360008601526112668282611213565b915050602083015184820360208601526112808282611213565b9150506040830151848203604086015261129a8282611213565b91505060608301516112af60608601826112ba565b508091505092915050565b6112c38161146e565b82525050565b60006020820190506112de6000830184611160565b92915050565b600060208201905081810360008301526112fe818461116f565b905092915050565b6000608082019050818103600083015261132081876111dd565b9050818103602083015261133481866111dd565b9050818103604083015261134881856111dd565b905061135760608301846112ba565b95945050505050565b6000608082019050818103600083015261137a8187611213565b9050818103602083015261138e8186611213565b905081810360408301526113a28185611213565b90506113b160608301846112ba565b95945050505050565b6000604051905081810181811067ffffffffffffffff821117156113dd57600080fd5b8060405250919050565b600067ffffffffffffffff8211156113fe57600080fd5b601f19601f8301169050602081019050919050565b6000602082019050919050565b600081519050919050565b600081519050919050565b600081519050919050565b6000602082019050919050565b600073ffffffffffffffffffffffffffffffffffffffff82169050919050565b6000819050919050565b600073ffffffffffffffffffffffffffffffffffffffff82169050919050565b6000819050919050565b82818337600083830152505050565b60005b838110156114cf5780820151818401526020810190506114b4565b838111156114de576000848401525b50505050565b6000601f19601f83011690509190505600a265627a7a72305820310e079c5661f5a9c3b0af4908f4f8c3863328a00a4c324c10fdd2204564287c6c6578706572696d656e74616cf50037",
  "source": "// SPDX-License-Identifier: MIT\r\npragma solidity ^0.4.23;\r\npragma experimental ABIEncoderV2;\r\n\r\ncontract RealEstate {\r\n  struct HouseInfo{\r\n    string sellerName;\r\n    string buyerName;\r\n    string houseAddress;\r\n    uint256 housePrice;\r\n  }\r\n\r\n  address owner;\r\n  \r\n  event BuyLogText(string sellerName, string buyerName, string houseAddress, uint256 housePrice);\r\n\r\n  constructor() public{\r\n    owner = msg.sender;\r\n  }\r\n\r\n  HouseInfo[] public Deajeon;\r\n  HouseInfo[] public Seoul;\r\n\r\n  function PrintAddress() public view returns(address){\r\n    return owner;\r\n  }\r\n  \r\n  function buyRealEstate(address sellerAddress, string locations, string sellerName, string buyerName, string houseAddress, uint256 housePrice )public payable{\r\n    sellerAddress.transfer(msg.value);\r\n\r\n    if(keccak256(bytes(locations)) == keccak256(\"대전\")){\r\n      Deajeon.push(HouseInfo(sellerName,buyerName,houseAddress,housePrice));\r\n    }\r\n\r\n    else if(keccak256(bytes(locations)) == keccak256(\"서울\")){\r\n      Seoul.push(HouseInfo(sellerName,buyerName,houseAddress,housePrice));\r\n    }\r\n\r\n    emit BuyLogText(sellerName ,buyerName , houseAddress , housePrice );\r\n  }\r\n\r\n  function readRealEstate(string locations)  public view returns(HouseInfo[] memory){\r\n    if(keccak256(bytes(locations)) == keccak256(\"대전\")){\r\n      return Deajeon;\r\n    }\r\n\r\n    else if(keccak256(bytes(locations)) == keccak256(\"서울\")){\r\n      return Seoul;\r\n    }\r\n  }\r\n}",
  "sourcePath": "C:\\Users\\afaf5\\OneDrive\\바탕 화면\\최종본\\react-BlockChain\\Front\\truffle\\contracts\\RealEstate.sol",
  "compiler": {
    "name": "solc",
    "version": "0.4.24+commit.e67f0147.Emscripten.clang"
  },
  "schemaVersion": "3.4.7",
  "updatedAt": "2022-07-06T08:29:57.397Z",
  "networkType": "ethereum",
  "devdoc": {
    "methods": {}
  },
  "userdoc": {
    "methods": {}
  }
}